:020000040000FA
:100000000C9462000C948A000C948A000C948A0070
:100010000C948A000C948A000C948A000C948A0038
:100020000C948A000C948A000C948A000C948A0028
:100030000C948A000C948A000C948A000C948A0018
:100040000C94FF050C948A000C94CD050C94A70524
:100050000C948A000C948A000C948A000C948A00F8
:100060000C948A000C948A000000000023002600F3
:10007000290000000008000201000003040700003E
:1000800000000000000000000000250028002B00F8
:1000900000000000240027002A00040404040404D3
:1000A0000404020202020202030303030303010227
:1000B00004081020408001020408102001020408F6
:1000C0001020490611241FBECFEFD8E0DEBFCDBF00
:1000D00011E0A0E0B1E0E6EAF4E102C005900D9283
:1000E000A836B107D9F722E0A8E6B1E001C01D9219
:1000F000A833B207E1F710E0C2E6D0E004C02197D0
:10010000FE010E944B0AC136D107C9F70E94DF06E3
:100110000C94510A0C94000090E0FC01E255FF4F52
:10012000249186569F4FFC018491882399F090E09A
:10013000880F991FFC01E057FF4FA591B491FC0176
:10014000EA57FF4F859194918FB7F894EC91E22B89
:10015000EC938FBF0895AF92BF92CF92DF92EF9250
:10016000FF920F931F93CF93DF936C017B018B0161
:10017000040F151FEB015E01AE18BF08C017D107B1
:1001800059F06991D601ED91FC910190F081E02D3B
:10019000C6010995892B79F7C501DF91CF911F9190
:1001A0000F91FF90EF90DF90CF90BF90AF900895A8
:1001B000FC01538D448D252F30E0842F90E0821B6D
:1001C000930B541710F0CF96089501970895FC01F2
:1001D000918D828D981761F0A28DAE0FBF2FB11D4A
:1001E0005D968C91928D9F5F9F73928F90E00895A2
:1001F0008FEF9FEF0895FC01918D828D981731F05C
:10020000828DE80FF11D858D90E008958FEF9FEFAF
:100210000895FC01918D228D892F90E0805C9F4F85
:10022000821B91098F73992708958BE791E00E94B3
:10023000090121E0892B09F420E0822F089580E054
:1002400090E0892B29F00E94150181110C94000087
:100250000895FC01A48DA80FB92FB11DA35ABF4F5B
:100260002C91848D90E001968F739927848FA689B5
:10027000B7892C93A089B1898C91837080648C9309
:10028000938D848D981306C00288F389E02D8081B8
:100290008F7D80830895EF92FF920F931F93CF93EA
:1002A000DF93EC0181E0888F9B8D8C8D98131AC0B1
:1002B000E889F989808185FF15C09FB7F894EE8998
:1002C000FF896083E889F9898081837080648083F5
:1002D0009FBF81E090E0DF91CF911F910F91FF9040
:1002E000EF900895F62E0B8D10E00F5F1F4F0F73E8
:1002F0001127E02E8C8D8E110CC00FB607FCFACFA3
:10030000E889F989808185FFF5CFCE010E94290116
:10031000F1CFEB8DEC0FFD2FF11DE35AFF4FF08273
:100320009FB7F8940B8FEA89FB8980818062CFCFD9
:10033000CF93DF93EC01888D8823B9F0AA89BB891C
:10034000E889F9898C9185FD03C0808186FD0DC007
:100350000FB607FCF7CF8C9185FFF2CF808185FF28
:10036000EDCFCE010E942901E9CFDF91CF91089511
:10037000833081F028F4813099F08230A9F008951B
:100380008730A9F08830C9F08430B1F480918000C2
:100390008F7D03C0809180008F77809380000895C7
:1003A00084B58F7784BD089584B58F7DFBCF809110
:1003B000B0008F778093B00008958091B0008F7D5A
:1003C000F9CFCF93DF93282F30E0F901EE58FF4F9C
:1003D0008491F901E255FF4FD491F901E656FF4FA0
:1003E000C491CC23A1F081110E94B801EC2FF0E060
:1003F000EE0FFF1FE859FF4FA591B491EC91ED234B
:1004000081E090E009F480E0DF91CF91089580E0F1
:1004100090E0FACF1F93CF93DF93282F30E0F901BC
:10042000EE58FF4F8491F901E255FF4FD491F90145
:10043000E656FF4FC491CC23A9F0162F81110E94DC
:10044000B801EC2FF0E0EE0FFF1FEA57FF4FA59128
:10045000B4918FB7F894EC91111108C0D095DE23B8
:10046000DC938FBFDF91CF911F910895DE2BF8CFE2
:100470008E3008F08E508770806480937C0080916D
:100480007A00806480937A0080917A0086FDFCCFA8
:10049000809178009091790008953FB7F894809109
:1004A0006D0190916E01A0916F01B091700126B520
:1004B000A89B05C02F3F19F00196A11DB11D3FBF9C
:1004C000BA2FA92F982F8827BC01CD01620F711D6B
:1004D000811D911D42E0660F771F881F991F4A9565
:1004E000D1F708958F929F92AF92BF92CF92DF92F1
:1004F000EF92FF924B015C010E944D026B017C0167
:100500000E944D026C197D098E099F09683E734057
:1005100081059105A8F321E0821A9108A108B1088C
:1005200088EEC80E83E0D81EE11CF11C81149104F2
:10053000A104B10429F7FF90EF90DF90CF90BF9016
:10054000AF909F908F900895FC0101900020E9F7F3
:100550003197AF01481B590BBC018BE791E00C941C
:10056000AB008F929F92AF92BF920F931F93CF9346
:10057000DF93CDB7DEB7A1970FB6F894DEBF0FBEFD
:10058000CDBF19A2423008F44AE08E010F5D1F4F23
:10059000842E912CB12CA12CA50194010E94290A32
:1005A000E62FB901CA01EA30F4F4E05DD801EE9318
:1005B0008D01232B242B252B79F790E080E01097D9
:1005C00019F0CD010E94A402A1960FB6F894DEBFE7
:1005D0000FBECDBFDF91CF911F910F91BF90AF9014
:1005E0009F908F900895E95CE1CFCF92DF92EF92D8
:1005F000FF92CF93DF936C01990FEE08FF08F7FE8F
:1006000019C06DE28BE791E00E944B01EC01662777
:100610007727CB016C197D098E099F094AE00E945A
:10062000B1028C0F9D1FDF91CF91FF90EF90DF9073
:10063000CF9008954AE0C701B601DF91CF91FF90B6
:10064000EF90DF90CF900C94B1024F925F926F9237
:100650007F928F929F92AF92BF92CF92DF92EF9252
:10066000FF920F931F93CF936B017C01742EAC010B
:100670009B010E94240A882399F082E191E0CF91A6
:100680001F910F91FF90EF90DF90CF90BF90AF90B0
:100690009F908F907F906F905F904F900C94A402EA
:1006A00046015701E894B7F82FEF3FEF4FE75FE7B8
:1006B000C501B4010E94240A81110DC02FEF3FEF44
:1006C0004FE75FE7C501B4010E94530818161CF4F8
:1006D00086E191E0D4CF2FEF3FEF4FE75FE4C70112
:1006E000B6010E94B20918161CF48AE191E0C7CF46
:1006F0002FEF3FEF4FE75FECC701B6010E945308B1
:1007000087FDF3CF20E030E0A901C701B6010E94C8
:10071000530810E000E087FF0AC06DE28BE791E02C
:100720000E944B018C01F7FAF094F7F8F094C0E0C6
:1007300060E070E080E09FE37C1641F020E030E074
:1007400040E251E40E945808CF5FF6CFA70196011E
:100750000E94E7072B013C010E94D1084B015C017C
:100760004AE00E94B1027C01E00EF11ECC23C1F1EF
:10077000C501B4010E9400099B01AC01C301B20193
:100780000E94E6074B015C016EE28BE791E00E945C
:100790004B01E80EF91EC15018F120E030E040E2B4
:1007A00051E4C501B4010E94B7092B013C010E942C
:1007B000D1084B01B12CA12C4AE0C501B4010E9423
:1007C000B102E80EF91EC501B4010E9400099B01A7
:1007D000AC01C301B2010E94E6074B015C01DBCF13
:1007E000C701CF911F910F91FF90EF90DF90CF90B5
:1007F000BF90AF909F908F907F906F905F904F9041
:1008000008954F925F926F927F928F929F92AF92D4
:10081000BF92CF92DF92EF92FF920F931F93CF93ED
:10082000DF938C014A015B0120E030E0A901CB019C
:10083000B4010E94B209181624F0B7FAB094B7F8C0
:10084000B094F8014680578060847184D081A501FE
:100850009401C301B2010E94530818160CF467C03A
:10086000F801C284D384E484F584A3019201C50114
:10087000B4010E94E6074B015C01A301920160E014
:1008800070E080E89FE30E94E6079B01AC01C50190
:10089000B4010E9458084B015C01A701960160E079
:1008A00070E080E89FE30E94E6079B01AC01C50170
:1008B000B4010E94B709A70196010E94E7072B0126
:1008C0003C01C1E020E030E0A9010E94B209181605
:1008D0000CF0C0E06C2F8D2F0E940A0261E06C27A3
:1008E000F80182810E940A0220E030E04FE753E4E1
:1008F000C301B2010E94B7094B015C0120E030E066
:10090000A9010E94B2091816FCF4C501B4010E94A5
:10091000CA08EB01F801E480F5808E2D0E948C005E
:100920002097B1F460E08E2D0E940A023EC060E084
:100930008D2F0E940A0260E0F80182810E940A0263
:10094000412C512C3201D0CFC501B4019058DFCFDA
:10095000CF3FD10511F461E0E6CFF701FF27EE5854
:10096000FF4FE491E33009F462C048F4E130C9F08C
:10097000E23009F457C0C038D1056CF7D3CFE73067
:1009800009F45FC0E83009F464C0E430A1F7809155
:100990008000806280938000D0938B00C0938A0097
:1009A00004C084B5806884BDC7BD8091710188236F
:1009B00009F457C08EE191E00E94A402F801808101
:1009C0000E94E1010E94F50288E291E00E94A402E7
:1009D000F80182810E94E1010E94F50281E391E029
:1009E0000E94A40242E0C301B2010E9425038AE3EF
:1009F00091E00E94A402C501B4010E94CA08CB0183
:100A0000DF91CF911F910F91FF90EF90DF90CF90EA
:100A1000BF90AF909F908F907F906F905F904F901E
:100A20000C94F50284B5806284BDC8BDBECF8091B0
:100A30008000806880938000D0938900C0938800F4
:100A4000B4CF8091B00080688093B000C093B300B1
:100A5000ACCF8091B00080628093B000C093B400AE
:100A6000A4CFDF91CF911F910F91FF90EF90DF9076
:100A7000CF90BF90AF909F908F907F906F905F903E
:100A80004F900895CF92DF92EF92FF92CF93DF9332
:100A9000EC0188810E943802BC01990F880B990BE8
:100AA0000E94020920E030E040E05BE30E94B709C9
:100AB00020E030E040E85FE30E94E6076B017C0144
:100AC00020E030E040E85FEB0E94530887FD31C032
:100AD00020E030E040E85FE3C701B6010E94B209C0
:100AE000181674F1809172018823D1F083E491E0AB
:100AF0000E94A402888199810E94F50288E491E015
:100B00000E94A40288810E9438020E94F5028CE4AF
:100B100091E00E94A40242E0C701B6010E942503B1
:100B2000C701B601DF91CF91FF90EF90DF90CF909A
:100B30000895C12CD12C90E8E92E9FEBF92ED2CF4D
:100B4000C12CD12C80E8E82E8FE3F82ECBCF1F925A
:100B50000F920FB60F9211242F933F934F935F93F1
:100B60006F937F938F939F93AF93BF93EF93FF9375
:100B70008BE791E00E942901FF91EF91BF91AF9126
:100B80009F918F917F916F915F914F913F912F91A5
:100B90000F900FBE0F901F9018951F920F920FB6D7
:100BA0000F9211242F938F939F93EF93FF93E091D4
:100BB0008B01F0918C018081E0919101F091920183
:100BC00082FD1BC09081809194018F5F8F73209173
:100BD0009501821741F0E0919401F0E0E558FE4F55
:100BE000958F80939401FF91EF919F918F912F9119
:100BF0000F900FBE0F901F9018958081F4CF1F9219
:100C00000F920FB60F9211242F933F938F939F93C0
:100C1000AF93BF938091690190916A01A0916B019C
:100C2000B0916C013091680123E0230F2D3758F506
:100C30000196A11DB11D20936801809369019093D5
:100C40006A01A0936B01B0936C0180916D0190914A
:100C50006E01A0916F01B09170010196A11DB11DAF
:100C600080936D0190936E01A0936F01B09370011A
:100C7000BF91AF919F918F913F912F910F900FBE98
:100C80000F901F90189526E8230F0296A11DB11D05
:100C9000D2CF8F929F92AF92BF92CF92DF92EF927C
:100CA000FF92CF93DF93EBE7F1E01382128288EE9D
:100CB00093E0A0E0B0E084839583A683B78384E0CB
:100CC00091E09183808385EC90E09587848784EC24
:100CD00090E09787868780EC90E0918B808B81EC09
:100CE00090E0938B828B82EC90E0958B848B86ECEA
:100CF00090E0978B868B118E128E138E148E8EE061
:100D000090E090933702809336028FE090E09093CA
:100D1000350280933402C6E2D2E084E090E0998309
:100D2000888385E090E09B838A8386E090E09D83C2
:100D30008C838DEC882E8CEC982EA92C8DE3B82E0C
:100D40008E829F82A886B986C12CD12CE12C9FE38C
:100D5000F92ECA86DB86EC86FD8684E00E948C0034
:100D60008A810E948C008C810E948C00C8E1D2E0B4
:100D700088E090E09983888389E090E09B838A8370
:100D80008AE090E09D838C838E829F82A886B986BC
:100D9000CA86DB86EC86FD8688E00E948C008A810C
:100DA0000E948C008C81DF91CF91FF90EF90DF90BB
:100DB000CF90BF90AF909F908F900C948C007894C0
:100DC00084B5826084BD84B5816084BD85B5826050
:100DD00085BD85B5816085BD80916E008160809301
:100DE0006E0010928100809181008260809381006A
:100DF000809181008160809381008091800081607A
:100E0000809380008091B10084608093B1008091D4
:100E1000B00081608093B00080917A0084608093FC
:100E20007A0080917A00826080937A0080917A00C3
:100E3000816080937A0080917A00806880937A0044
:100E40001092C100E0918B01F0918C0182E08083CF
:100E5000E0918B01F0918C011082E0918701F0917B
:100E600088011082E0918901F0918A0180E18083FC
:100E700010929301E0918F01F091900186E08083C0
:100E8000E0918D01F0918E01808180618083E091FD
:100E90008D01F0918E01808188608083E0918D01C9
:100EA000F0918E01808180688083E0918D01F091C6
:100EB0008E0180818F7D808381E591E00E94A40274
:100EC00088E591E00E94A40281E080937201809302
:100ED000710160ED77E080E090E00E947202C0E076
:100EE000D0E086E392E00E94420560937701709320
:100EF00078018093790190937A018BE591E00E94CB
:100F0000A40284E392E00E9442056093730170930F
:100F10007401809375019093760188E591E00E94B9
:100F2000A402209173013091740140917501509198
:100F300076016091770170917801809179019091AB
:100F40007A010E94E7072DEC3CEC4CEC5DE30E943B
:100F5000E707AB01BC0186E292E00E9401048EE546
:100F600091E00E94A402209173013091740140919C
:100F700075015091760160917701709178018091AF
:100F8000790190917A010E94E6072DEC3CEC4CEC43
:100F90005DE30E94E607AB01BC0188E192E00E949C
:100FA000010488E591E00E94A40268EE73E080E00D
:100FB00090E00E947202209709F493CF0E941501DD
:100FC000882309F48ECF0E9400008BCF5058BB2796
:100FD000AA270E94FE070C9478090E946A0938F03B
:100FE0000E94710920F039F49F3F19F426F40C9403
:100FF00067090EF4E095E7FB0C946109E92F0E9464
:10100000890958F3BA17620773078407950720F018
:1010100079F4A6F50C94AB090EF4E0950B2EBA2FDB
:10102000A02D0B01B90190010C01CA01A0011124EE
:10103000FF27591B99F0593F50F4503E68F11A169A
:10104000F040A22F232F342F4427585FF3CF46952B
:1010500037952795A795F0405395C9F77EF41F164D
:10106000BA0B620B730B840BBAF09150A1F0FF0F17
:10107000BB1F661F771F881FC2F70EC0BA0F621F03
:10108000731F841F48F4879577956795B795F795F3
:101090009E3F08F0B0CF9395880F08F09927EE0F88
:1010A0009795879508950E943D0908F481E0089579
:1010B0000E946C080C9478090E94710958F00E94F3
:1010C0006A0940F029F45F3F29F00C94610951113D
:1010D0000C94AC090C9467090E94890968F3992360
:1010E000B1F3552391F3951B550BBB27AA27621724
:1010F0007307840738F09F5F5F4F220F331F441F31
:10110000AA1FA9F335D00E2E3AF0E0E832D0915064
:101110005040E695001CCAF72BD0FE2F29D0660F51
:10112000771F881FBB1F261737074807AB07B0E894
:1011300009F0BB0B802DBF01FF2793585F4F3AF09A
:101140009E3F510578F00C9461090C94AC095F3F07
:10115000E4F3983ED4F3869577956795B795F79520
:101160009F5FC9F7880F911D9695879597F9089508
:10117000E1E0660F771F881FBB1F621773078407A4
:10118000BA0720F0621B730B840BBA0BEE1F88F7B3
:10119000E09508950E94D1086894B1110C94AC09AF
:1011A00008950E94910988F09F5798F0B92F9927C8
:1011B000B751B0F0E1F0660F771F881F991F1AF042
:1011C000BA95C9F714C0B13091F00E94AB09B1E0F3
:1011D00008950C94AB09672F782F8827B85F39F0F2
:1011E000B93FCCF3869577956795B395D9F73EF4DB
:1011F00090958095709561957F4F8F4F9F4F089583
:10120000E89409C097FB3EF49095809570956195A0
:101210007F4F8F4F9F4F9923A9F0F92F96E9BB2756
:101220009395F695879577956795B795F111F8CFD2
:10123000FAF4BB0F11F460FF1BC06F5F7F4F8F4F3D
:101240009F4F16C0882311F096E911C0772321F033
:101250009EE8872F762F05C0662371F096E8862FCB
:1012600070E060E02AF09A95660F771F881FDAF722
:10127000880F9695879597F90895990F0008550F4F
:10128000AA0BE0E8FEEF16161706E807F907C0F00C
:1012900012161306E407F50798F0621B730B840B14
:1012A000950B39F40A2661F0232B242B252B21F4EE
:1012B00008950A2609F4A140A6958FEF811D811D8E
:1012C000089597F99F6780E870E060E008959FEFC8
:1012D00080EC089500240A941616170618060906CD
:1012E000089500240A94121613061406050608959C
:1012F000092E0394000C11F4882352F0BB0F40F424
:10130000BF2B11F460FF04C06F5F7F4F8F4F9F4F63
:10131000089557FD9058440F551F59F05F3F71F0E5
:101320004795880F97FB991F61F09F3F79F087954C
:101330000895121613061406551FF2CF4695F1DFD5
:1013400008C0161617061806991FF1CF8695710565
:10135000610508940895E894BB2766277727CB0199
:1013600097F908950E943D0908F48FEF08950E94AF
:10137000CA090C9478090E946A0938F00E94710920
:1013800020F0952311F00C9461090C946709112445
:101390000C94AC090E94890970F3959FC1F3950FD5
:1013A00050E0551F629FF001729FBB27F00DB11DE9
:1013B000639FAA27F00DB11DAA1F649F6627B00D79
:1013C000A11D661F829F2227B00DA11D621F739F62
:1013D000B00DA11D621F839FA00D611D221F749F70
:1013E0003327A00D611D231F849F600D211D822FB7
:1013F000762F6A2F11249F5750409AF0F1F08823DE
:101400004AF0EE0FFF1FBB1F661F771F881F91500A
:101410005040A9F79E3F510580F00C9461090C944F
:10142000AC095F3FE4F3983ED4F3869577956795D2
:10143000B795F795E7959F5FC1F7FE2B880F911D34
:101440009695879597F908950E943D09880B990B09
:101450000895A1E21A2EAA1BBB1BFD010DC0AA1FF5
:10146000BB1FEE1FFF1FA217B307E407F50720F00D
:10147000A21BB30BE40BF50B661F771F881F991F88
:101480001A9469F760957095809590959B01AC01D1
:10149000BD01CF010895EE0FFF1F0590F491E02DDF
:1014A0000994F894FFCF000000004B01AB00D80076
:1014B00098010901E700FB006E616E00696E66002D
:1014C0006F766600202020204677643A2000202F87
:1014D000205265763A2000202F205369673A200079
:1014E000202F204F75743A200050696E3A00203D3D
:1014F0002000203D3E200048656C6C6F21000D0AE5
:0E150000002009002020097C7C09202000002A
:107E0000112484B714BE81FFF0D085E080938100F7
:107E100082E08093C00088E18093C10086E0809377
:107E2000C20080E18093C4008EE0C9D0259A86E02C
:107E300020E33CEF91E0309385002093840096BBD3
:107E4000B09BFECF1D9AA8958150A9F7CC24DD24C4
:107E500088248394B5E0AB2EA1E19A2EF3E0BF2EE7
:107E6000A2D0813461F49FD0082FAFD0023811F036
:107E7000013811F484E001C083E08DD089C08234E0
:107E800011F484E103C0853419F485E0A6D080C0E4
:107E9000853579F488D0E82EFF2485D0082F10E0AE
:107EA000102F00270E291F29000F111F8ED06801E7
:107EB0006FC0863521F484E090D080E0DECF843638
:107EC00009F040C070D06FD0082F6DD080E0C81688
:107ED00080E7D80618F4F601B7BEE895C0E0D1E017
:107EE00062D089930C17E1F7F0E0CF16F0E7DF06D8
:107EF00018F0F601B7BEE89568D007B600FCFDCFD4
:107F0000A601A0E0B1E02C9130E011968C91119780
:107F100090E0982F8827822B932B1296FA010C0160
:107F200087BEE89511244E5F5F4FF1E0A038BF0790
:107F300051F7F601A7BEE89507B600FCFDCF97BE46
:107F4000E89526C08437B1F42ED02DD0F82E2BD052
:107F50003CD0F601EF2C8F010F5F1F4F84911BD097
:107F6000EA94F801C1F70894C11CD11CFA94CF0C13
:107F7000D11C0EC0853739F428D08EE10CD085E9AC
:107F80000AD08FE07ACF813511F488E018D01DD067
:107F900080E101D065CF982F8091C00085FFFCCF94
:107FA0009093C60008958091C00087FFFCCF809118
:107FB000C00084FD01C0A8958091C6000895E0E648
:107FC000F0E098E1908380830895EDDF803219F02E
:107FD00088E0F5DFFFCF84E1DECF1F93182FE3DFCA
:107FE0001150E9F7F2DF1F91089580E0E8DFEE27F6
:047FF000FF270994CA
:027FFE00040479
:00000001FF
