:020000040000FA
:100000000C9462000C948A000C948A000C948A0070
:100010000C948A000C948A000C948A000C948A0038
:100020000C948A000C948A000C948A000C948A0028
:100030000C948A000C948A000C948A000C948A0018
:100040000C9456060C948A000C9424060C94FE051D
:100050000C948A000C948A000C948A000C948A00F8
:100060000C948A000C948A000000000023002600F3
:10007000290000000008000201000003040700003E
:1000800000000000000000000000250028002B00F8
:1000900000000000240027002A00040404040404D3
:1000A0000404020202020202030303030303010227
:1000B00004081020408001020408102001020408F6
:1000C0001020A00611241FBECFEFD8E0DEBFCDBFA9
:1000D00011E0A0E0B1E0EEE1F6E102C005900D9282
:1000E000A438B107D9F722E0A4E8B1E001C01D921D
:1000F000A636B207E1F710E0C2E6D0E004C02197CF
:10010000FE010E94070BC136D107C9F70E943107D3
:100110000C940D0B0C94000090E0FC01E255FF4F95
:10012000249186569F4FFC018491882399F090E09A
:10013000880F991FFC01E057FF4FA591B491FC0176
:10014000EA57FF4F859194918FB7F894EC91E22B89
:10015000EC938FBF0895AF92BF92CF92DF92EF9250
:10016000FF920F931F93CF93DF936C017B018B0161
:10017000040F151FEB015E01AE18BF08C017D107B1
:1001800059F06991D601ED91FC910190F081E02D3B
:10019000C6010995892B79F7C501DF91CF911F9190
:1001A0000F91FF90EF90DF90CF90BF90AF900895A8
:1001B000FC01538D448D252F30E0842F90E0821B6D
:1001C000930B541710F0CF96089501970895FC01F2
:1001D000918D828D981761F0A28DAE0FBF2FB11D4A
:1001E0005D968C91928D9F5F9F73928F90E00895A2
:1001F0008FEF9FEF0895FC01918D828D981731F05C
:10020000828DE80FF11D858D90E008958FEF9FEFAF
:100210000895FC01918D228D892F90E0805C9F4F85
:10022000821B91098F739927089589E991E00E94B3
:10023000090121E0892B09F420E0822F089580E054
:1002400090E0892B29F00E94150181110C94000087
:100250000895FC01A48DA80FB92FB11DA35ABF4F5B
:100260002C91848D90E001968F739927848FA689B5
:10027000B7892C93A089B1898C91837080648C9309
:10028000938D848D981306C00288F389E02D8081B8
:100290008F7D80830895EF92FF920F931F93CF93EA
:1002A000DF93EC0181E0888F9B8D8C8D98131AC0B1
:1002B000E889F989808185FF15C09FB7F894EE8998
:1002C000FF896083E889F9898081837080648083F5
:1002D0009FBF81E090E0DF91CF911F910F91FF9040
:1002E000EF900895F62E0B8D10E00F5F1F4F0F73E8
:1002F0001127E02E8C8D8E110CC00FB607FCFACFA3
:10030000E889F989808185FFF5CFCE010E94290116
:10031000F1CFEB8DEC0FFD2FF11DE35AFF4FF08273
:100320009FB7F8940B8FEA89FB8980818062CFCFD9
:10033000CF93DF93EC01888D8823B9F0AA89BB891C
:10034000E889F9898C9185FD03C0808186FD0DC007
:100350000FB607FCF7CF8C9185FFF2CF808185FF28
:10036000EDCFCE010E942901E9CFDF91CF91089511
:10037000833081F028F4813099F08230A9F008951B
:100380008730A9F08830C9F08430B1F480918000C2
:100390008F7D03C0809180008F77809380000895C7
:1003A00084B58F7784BD089584B58F7DFBCF809110
:1003B000B0008F778093B00008958091B0008F7D5A
:1003C000F9CFCF93DF93282F30E0F901EE58FF4F9C
:1003D0008491F901E255FF4FD491F901E656FF4FA0
:1003E000C491CC23A1F081110E94B801EC2FF0E060
:1003F000EE0FFF1FE859FF4FA591B491EC91ED234B
:1004000081E090E009F480E0DF91CF91089580E0F1
:1004100090E0FACF1F93CF93DF93282F30E0F901BC
:10042000EE58FF4F8491F901E255FF4FD491F90145
:10043000E656FF4FC491CC23A9F0162F81110E94DC
:10044000B801EC2FF0E0EE0FFF1FEA57FF4FA59128
:10045000B4918FB7F894EC91111108C0D095DE23B8
:10046000DC938FBFDF91CF911F910895DE2BF8CFE2
:100470008E3008F08E508770806480937C0080916D
:100480007A00806480937A0080917A0086FDFCCFA8
:10049000809178009091790008953FB7F894809109
:1004A000890190918A01A0918B01B0918C0126B5B0
:1004B000A89B05C02F3F19F00196A11DB11D3FBF9C
:1004C000BA2FA92F982F8827BC01CD01620F711D6B
:1004D000811D911D42E0660F771F881F991F4A9565
:1004E000D1F708958F929F92AF92BF92CF92DF92F1
:1004F000EF92FF924B015C010E944D026B017C0167
:100500000E944D026C197D098E099F09683E734057
:1005100081059105A8F321E0821A9108A108B1088C
:1005200088EEC80E83E0D81EE11CF11C81149104F2
:10053000A104B10429F7FF90EF90DF90CF90BF9016
:10054000AF909F908F900895FC0101900020E9F7F3
:100550003197AF01481B590BBC0189E991E00C941C
:10056000AB008F929F92AF92BF920F931F93CF9346
:10057000DF93CDB7DEB7A1970FB6F894DEBF0FBEFD
:10058000CDBF19A2423008F44AE08E010F5D1F4F23
:10059000842E912CB12CA12CA50194010E94E50A76
:1005A000E62FB901CA01EA30F4F4E05DD801EE9318
:1005B0008D01232B242B252B79F790E080E01097D9
:1005C00019F0CD010E94A402A1960FB6F894DEBFE7
:1005D0000FBECDBFDF91CF911F910F91BF90AF9014
:1005E0009F908F900895E95CE1CF0C94A402CF9284
:1005F000DF92EF92FF92CF93DF936C01990FEE0899
:10060000FF08F7FE19C06DE289E991E00E944B01F5
:10061000EC0166277727CB016C197D098E099F09AC
:100620004AE00E94B1028C0F9D1FDF91CF91FF9095
:10063000EF90DF90CF9008954AE0C701B601DF91B7
:10064000CF91FF90EF90DF90CF900C94B1024F923A
:100650005F926F927F928F929F92AF92BF92CF9252
:10066000DF92EF92FF920F931F93CF936B017C0168
:10067000742EAC019B010E94E00A882399F082E16C
:1006800091E0CF911F910F91FF90EF90DF90CF906D
:10069000BF90AF909F908F907F906F905F904F90A2
:1006A0000C94A40246015701E894B7F82FEF3FEFEE
:1006B0004FE75FE7C501B4010E94E00A81110DC058
:1006C0002FEF3FEF4FE75FE7C501B4010E940F092D
:1006D00018161CF486E191E0D4CF2FEF3FEF4FE7DF
:1006E0005FE4C701B6010E946E0A18161CF48AE185
:1006F00091E0C7CF2FEF3FEF4FE75FECC701B601A7
:100700000E940F0987FDF3CF20E030E0A901C70167
:10071000B6010E940F0910E000E087FF0AC06DE2F9
:1007200089E991E00E944B018C01F7FAF094F7F807
:10073000F094C0E060E070E080E09FE37C1641F060
:1007400020E030E040E251E40E941409CF5FF6CF90
:10075000A70196010E94A3082B013C010E948D096C
:100760004B015C014AE00E94B1027C01E00EF11EE7
:10077000CC23C1F1C501B4010E94BC099B01AC01AD
:10078000C301B2010E94A2084B015C016EE289E93B
:1007900091E00E944B01E80EF91EC15018F120E0D3
:1007A00030E040E251E4C501B4010E94730A2B011C
:1007B0003C010E948D094B01B12CA12C4AE0C501DE
:1007C000B4010E94B102E80EF91EC501B4010E94F5
:1007D000BC099B01AC01C301B2010E94A2084B01FC
:1007E0005C01DBCFC701CF911F910F91FF90EF907C
:1007F000DF90CF90BF90AF909F908F907F906F9041
:100800005F904F9008954F925F926F927F928F9278
:100810009F92AF92BF92EF92FF920F931F93CF934D
:10082000DF938C014A015B01FC01C08120E030E0D4
:10083000A901CB01B4010E946E0A1816C4F42AE083
:1008400037ED43E25CE3C501B4010E946E0A18165D
:100850000CF4E9C060E08C2F0E940A0260E0F8010D
:1008600082810E940A02412C512C32012EC02AE0C2
:1008700037ED43E25CEBC501B4010E940F0987FF2D
:10088000E9CF60E08C2F0E940A0261E0F8018281CA
:100890000E940A02F8014680578060847184B7FA8A
:1008A000B094B7F8B094A301920160E070E080E8E2
:1008B0009FE30E94A208A50194010E94730AA3016C
:1008C00092010E94A3082B013C0120E030E04FE799
:1008D00053E4C301B2010E94730A4B015C0120E0A2
:1008E00030E0A9010E946E0A181694F4C501B40103
:1008F0000E948609EB01F801E480F5808E2D0E94AC
:100900008C00209749F460E08E2D0E940A0231C0CD
:10091000C501B4019058ECCFCF3FD10511F461E08F
:10092000F3CFF701FF27EE58FF4FE491E33009F4CE
:1009300060C048F4E130C9F0E23009F455C0C03875
:10094000D1056CF7E0CFE73009F45DC0E83009F479
:1009500062C0E430A1F780918000806280938000C3
:10096000D0938B00C0938A0004C084B5806884BD96
:10097000C7BD80918D01882309F464C08EE191E0A8
:100980000E94F502F80180810E94E1010E94F702B5
:1009900084E291E00E94F502F80182810E94E10167
:1009A0000E94F7028DE291E00E94F50242E0C3014D
:1009B000B2010E94270386E391E00E94F502C5017F
:1009C000B4010E948609CB01DF91CF911F910F9155
:1009D000FF90EF90BF90AF909F908F907F906F901F
:1009E0005F904F900C94F70284B5806284BDC8BDBF
:1009F000C0CF80918000806880938000D093890070
:100A0000C0938800B6CF8091B00080688093B0001A
:100A1000C093B300AECF8091B00080628093B000ED
:100A2000C093B400A6CF61E08C2F0E940A0260E060
:100A3000F80182810E940A02F80146805780608492
:100A4000718431CFDF91CF911F910F91FF90EF9083
:100A5000BF90AF909F908F907F906F905F904F90DE
:100A600008954F925F926F927F928F929F92AF9272
:100A7000BF92CF92DF92EF92FF920F931F93CF938B
:100A8000DF93EC0188810E943802BC01990F880B2A
:100A9000990B0E94BE0920E030E84FEF53E40E941A
:100AA000140920E030E040E85FE30E94A2086B01F7
:100AB0007C0120E030E0A9010E946E0AA7019601A6
:100AC00018160CF050588A809B80AC80BD80C50100
:100AD000B4010E946E0A18160CF478C020E030E0D1
:100AE00040E85FEBC701B6010E940F0987FD72C0A5
:100AF00020E030E040E85FE3C701B6010E946E0AE3
:100B000018160CF46EC020E030E0A901C701B60150
:100B10000E946E0A26013701181634F026013701AB
:100B2000F7FAF094F7F8F094C1E0D0E020E030E07C
:100B3000A901B201C3010E946E0A181614F0D0E098
:100B4000C0E001E010E020E030E0A901B201C30103
:100B50000E940F0987FD02C010E000E0BE01601B8B
:100B6000710B072E000C880B990B0E94BE092B01FC
:100B70003C01A5019401C701B6010E94A2086B01C6
:100B80007C01A501940160E070E080E89FE30E9491
:100B9000A2089B01AC01C701B6010E9414099B0188
:100BA000AC01C301B2010E94730ADF91CF911F9182
:100BB0000F91FF90EF90DF90CF90BF90AF909F90FC
:100BC0008F907F906F905F904F900895C12CD12CA3
:100BD0007601A4CFC12CD12C30E8E32E3FEBF32ECD
:100BE0009DCF412C512C80E8682E9FE3792EC12C9B
:100BF000D12C20E8E22E2FE3F22E96CF1F920F92F7
:100C00000FB60F9211242F933F934F935F936F93DF
:100C10007F938F939F93AF93BF93EF93FF9389E954
:100C200091E00E942901FF91EF91BF91AF919F91B7
:100C30008F917F916F915F914F913F912F910F9085
:100C40000FBE0F901F9018951F920F920FB60F9224
:100C500011242F938F939F93EF93FF93E091A9011A
:100C6000F091AA018081E091AF01F091B00182FD85
:100C70001BC090818091B2018F5F8F732091B3016F
:100C8000821741F0E091B201F0E0E756FE4F958FF8
:100C90008093B201FF91EF919F918F912F910F90CF
:100CA0000FBE0F901F9018958081F4CF1F920F9266
:100CB0000FB60F9211242F933F938F939F93AF936F
:100CC000BF938091850190918601A0918701B09199
:100CD00088013091840123E0230F2D3758F50196C8
:100CE000A11DB11D209384018093850190938601FD
:100CF000A0938701B09388018091890190918A0126
:100D0000A0918B01B0918C010196A11DB11D809322
:100D1000890190938A01A0938B01B0938C01BF91BC
:100D2000AF919F918F913F912F910F900FBE0F9098
:100D30001F90189526E8230F0296A11DB11DD2CF52
:100D4000CF92DF92EF92FF92CF93DF93E9E9F1E048
:100D50001382128288EE93E0A0E0B0E08483958352
:100D6000A683B78384E091E09183808385EC90E053
:100D70009587848784EC90E09787868780EC90E065
:100D8000918B808B81EC90E0938B828B82EC90E056
:100D9000958B848B86EC90E0978B868B118E128ED0
:100DA000138E148EE0E6F2E08EE090E09183808373
:100DB0008DEC9CECACECBDE382839383A483B58380
:100DC000EAE5F2E08FE090E0918380838DEC9CEC8B
:100DD000ACE4BDE382839383A483B583C0E4D2E013
:100DE00084E090E09983888385E090E09B838A8308
:100DF00086E090E09D838C8386E6C82EDC2C86EE10
:100E0000E82E8EE3F82ECE82DF82E886F98684E033
:100E10000E948C008A810E948C008C810E948C0030
:100E2000C6E3D2E088E090E09983888389E090E08F
:100E30009B838A838AE090E09D838C83CE82DF82CD
:100E4000E886F98688E00E948C008A810E948C00E6
:100E50008C81DF91CF91FF90EF90DF90CF900C9439
:100E60008C00789484B5826084BD84B5816084BD33
:100E700085B5826085BD85B5816085BD80916E0038
:100E8000816080936E001092810080918100826069
:100E900080938100809181008160809381008091A6
:100EA00080008160809380008091B1008460809395
:100EB000B1008091B00081608093B00080917A0091
:100EC000846080937A0080917A00826080937A00B7
:100ED00080917A00816080937A0080917A008068A6
:100EE00080937A001092C100E091A901F091AA01CB
:100EF00082E08083E091A901F091AA011082E09143
:100F0000A501F091A6011082E091A701F091A8013E
:100F100080E180831092B101E091AD01F091AE01CA
:100F200086E08083E091AB01F091AC01808180612B
:100F30008083E091AB01F091AC0180818860808377
:100F4000E091AB01F091AC01808180688083E091F9
:100F5000AB01F091AC0180818F7D80838FE391E0C4
:100F60000E94A40286E491E00E94A40281E08093A2
:100F70008D0180938E0160ED77E080E090E00E942B
:100F80007202C2E5D2E000E010E080E692E00E944A
:100F9000310560939501709396018093970190932A
:100FA00098018AE592E00E9431056B017C01C092B4
:100FB0009101D0929201E0929301F092940180907D
:100FC000950190909601A0909701B090980120E033
:100FD00030E0A9010E946E0A18160CF096C08092AB
:100FE000520290925302A0925402B0925502A7016D
:100FF000960160E070E080E89FE30E94A208A501EE
:1010000094010E94730A6093560270935702809372
:1010100058029093590289E491E00E94F50242E05F
:10102000C501B4010E94270382E591E00E94F50208
:1010300042E0C701B6010E9427038CE591E00E94BF
:10104000F50281E691E00E94F502609152027091F2
:101050005302809154029091550242E00E9427036E
:101060008DE691E00E94F502609156027091570260
:10107000809158029091590242E00E942703D09338
:101080009001C0938F0180918E01882321F086E426
:1010900091E00E94A402E0918F01F09190014081C3
:1010A00051816281738180E492E00E940304809107
:1010B0008D01882321F08AE791E00E94F502E091FA
:1010C0008F01F0919001448155816681778186E39B
:1010D00092E00E94030487E491E00E94A40286E467
:1010E00091E00E94A40264EF71E080E090E00E9431
:1010F00072020115110509F448CF0E9415018823D9
:1011000009F443CF0E94000040CF80925602909293
:101110005702A0925802B092590220E030E040E815
:101120005FE3C701B6010E94A308A50194010E94D4
:10113000730A609352027093530280935402909307
:10114000550269CF5058BB27AA270E94BA080C94B1
:10115000340A0E94260A38F00E942D0A20F039F441
:101160009F3F19F426F40C94230A0EF4E095E7FB54
:101170000C941D0AE92F0E94450A58F3BA1762071A
:1011800073078407950720F079F4A6F50C94670A95
:101190000EF4E0950B2EBA2FA02D0B01B901900192
:1011A0000C01CA01A0011124FF27591B99F0593FD6
:1011B00050F4503E68F11A16F040A22F232F342F1E
:1011C0004427585FF3CF469537952795A795F0406C
:1011D0005395C9F77EF41F16BA0B620B730B840B81
:1011E000BAF09150A1F0FF0FBB1F661F771F881F39
:1011F000C2F70EC0BA0F621F731F841F48F4879591
:1012000077956795B795F7959E3F08F0B0CF939582
:10121000880F08F09927EE0F9795879508950E94FB
:10122000F90908F481E008950E9428090C94340A11
:101230000E942D0A58F00E94260A40F029F45F3FD0
:1012400029F00C941D0A51110C94680A0C94230A7D
:101250000E94450A68F39923B1F3552391F3951B36
:10126000550BBB27AA2762177307840738F09F5FC7
:101270005F4F220F331F441FAA1FA9F335D00E2E34
:101280003AF0E0E832D091505040E695001CCAF7A1
:101290002BD0FE2F29D0660F771F881FBB1F261764
:1012A00037074807AB07B0E809F0BB0B802DBF013B
:1012B000FF2793585F4F3AF09E3F510578F00C940A
:1012C0001D0A0C94680A5F3FE4F3983ED4F38695B8
:1012D00077956795B795F7959F5FC9F7880F911D2B
:1012E0009695879597F90895E1E0660F771F881F17
:1012F000BB1F621773078407BA0720F0621B730BCA
:10130000840BBA0BEE1F88F7E09508950E948D09B3
:101310006894B1110C94680A08950E944D0A88F0EF
:101320009F5798F0B92F9927B751B0F0E1F0660FA9
:10133000771F881F991F1AF0BA95C9F714C0B130EA
:1013400091F00E94670AB1E008950C94670A672F34
:10135000782F8827B85F39F0B93FCCF38695779519
:101360006795B395D9F73EF4909580957095619502
:101370007F4F8F4F9F4F0895E89409C097FB3EF42D
:1013800090958095709561957F4F8F4F9F4F9923D2
:10139000A9F0F92F96E9BB279395F6958795779550
:1013A0006795B795F111F8CFFAF4BB0F11F460FF10
:1013B0001BC06F5F7F4F8F4F9F4F16C0882311F068
:1013C00096E911C0772321F09EE8872F762F05C07C
:1013D000662371F096E8862F70E060E02AF09A9517
:1013E000660F771F881FDAF7880F9695879597F90C
:1013F0000895990F0008550FAA0BE0E8FEEF1616A6
:101400001706E807F907C0F012161306E407F507F8
:1014100098F0621B730B840B950B39F40A2661F06C
:10142000232B242B252B21F408950A2609F4A1400F
:10143000A6958FEF811D811D089597F99F6780E81C
:1014400070E060E008959FEF80EC089500240A9416
:101450001616170618060906089500240A9412168F
:101460001306140605060895092E0394000C11F4C2
:10147000882352F0BB0F40F4BF2B11F460FF04C06F
:101480006F5F7F4F8F4F9F4F089557FD9058440FC8
:10149000551F59F05F3F71F04795880F97FB991FD3
:1014A00061F09F3F79F08795089512161306140690
:1014B000551FF2CF4695F1DF08C01616170618061D
:1014C000991FF1CF86957105610508940895E894F8
:1014D000BB2766277727CB0197F908950E94F90962
:1014E00008F48FEF08950E94860A0C94340A0E9433
:1014F000260A38F00E942D0A20F0952311F00C9452
:101500001D0A0C94230A11240C94680A0E94450AAF
:1015100070F3959FC1F3950F50E0551F629FF00146
:10152000729FBB27F00DB11D639FAA27F00DB11D5F
:10153000AA1F649F6627B00DA11D661F829F2227E8
:10154000B00DA11D621F739FB00DA11D621F839F6F
:10155000A00D611D221F749F3327A00D611D231F45
:10156000849F600D211D822F762F6A2F11249F5793
:1015700050409AF0F1F088234AF0EE0FFF1FBB1F96
:10158000661F771F881F91505040A9F79E3F510555
:1015900080F00C941D0A0C94680A5F3FE4F3983EB7
:1015A000D4F3869577956795B795F795E7959F5FFF
:1015B000C1F7FE2B880F911D9695879597F9089591
:1015C0000E94F909880B990B0895A1E21A2EAA1B13
:1015D000BB1BFD010DC0AA1FBB1FEE1FFF1FA217E3
:1015E000B307E407F50720F0A21BB30BE40BF50BE0
:1015F000661F771F881F991F1A9469F76095709569
:10160000809590959B01AC01BD01CF010895EE0F2F
:10161000FF1F0590F491E02D0994F894FFCF00008E
:1016200000004B01AB00D80098010901E700FB0066
:101630006E616E00696E66006F7666004677643A8A
:101640002000202F205265763A2000202F20536959
:10165000673A2000202F204F75743A200048656CAF
:101660006C6F21000D0A00506F74205370643A00B3
:1016700009506F7420526F743A00097C7C09004D48
:101680007472204120636D643A2000094D74722009
:101690004220636D643A2000202009097C7C0920E7
:0216A000200028
:107E0000112484B714BE81FFF0D085E080938100F7
:107E100082E08093C00088E18093C10086E0809377
:107E2000C20080E18093C4008EE0C9D0259A86E02C
:107E300020E33CEF91E0309385002093840096BBD3
:107E4000B09BFECF1D9AA8958150A9F7CC24DD24C4
:107E500088248394B5E0AB2EA1E19A2EF3E0BF2EE7
:107E6000A2D0813461F49FD0082FAFD0023811F036
:107E7000013811F484E001C083E08DD089C08234E0
:107E800011F484E103C0853419F485E0A6D080C0E4
:107E9000853579F488D0E82EFF2485D0082F10E0AE
:107EA000102F00270E291F29000F111F8ED06801E7
:107EB0006FC0863521F484E090D080E0DECF843638
:107EC00009F040C070D06FD0082F6DD080E0C81688
:107ED00080E7D80618F4F601B7BEE895C0E0D1E017
:107EE00062D089930C17E1F7F0E0CF16F0E7DF06D8
:107EF00018F0F601B7BEE89568D007B600FCFDCFD4
:107F0000A601A0E0B1E02C9130E011968C91119780
:107F100090E0982F8827822B932B1296FA010C0160
:107F200087BEE89511244E5F5F4FF1E0A038BF0790
:107F300051F7F601A7BEE89507B600FCFDCF97BE46
:107F4000E89526C08437B1F42ED02DD0F82E2BD052
:107F50003CD0F601EF2C8F010F5F1F4F84911BD097
:107F6000EA94F801C1F70894C11CD11CFA94CF0C13
:107F7000D11C0EC0853739F428D08EE10CD085E9AC
:107F80000AD08FE07ACF813511F488E018D01DD067
:107F900080E101D065CF982F8091C00085FFFCCF94
:107FA0009093C60008958091C00087FFFCCF809118
:107FB000C00084FD01C0A8958091C6000895E0E648
:107FC000F0E098E1908380830895EDDF803219F02E
:107FD00088E0F5DFFFCF84E1DECF1F93182FE3DFCA
:107FE0001150E9F7F2DF1F91089580E0E8DFEE27F6
:047FF000FF270994CA
:027FFE00040479
:00000001FF
