:020000040000FA
:100000000C9462000C948A000C948A000C948A0070
:100010000C948A000C948A000C948A000C948A0038
:100020000C948A000C948A000C948A000C948A0028
:100030000C948A000C948A000C948A000C948A0018
:100040000C94E1030C948A000C94AF030C94890384
:100050000C948A000C948A000C948A000C948A00F8
:100060000C948A000C948A000000000023002600F3
:10007000290000000008000201000003040700003E
:1000800000000000000000000000250028002B00F8
:1000900000000000240027002A00040404040404D3
:1000A0000404020202020202030303030303010227
:1000B00004081020408001020408102001020408F6
:1000C0001020220611241FBECFEFD8E0DEBFCDBF27
:1000D00011E0A0E0B1E0E4E7FDE002C005900D9280
:1000E000A236B107D9F722E0A2E6B1E001C01D9225
:1000F000AC30B207E1F710E0C2E6D0E004C02197CF
:10010000FE010E94B206C136D107C9F70E942B0436
:100110000C94B8060C94000090E0FC01E255FF4FEF
:10012000249186569F4FFC018491882399F090E09A
:10013000880F991FFC01E057FF4FA591B491FC0176
:10014000EA57FF4F859194918FB7F894EC91E22B89
:10015000EC938FBF0895AF92BF92CF92DF92EF9250
:10016000FF920F931F93CF93DF936C017B018B0161
:10017000040F151FEB015E01AE18BF08C017D107B1
:1001800059F06991D601ED91FC910190F081E02D3B
:10019000C6010995892B79F7C501DF91CF911F9190
:1001A0000F91FF90EF90DF90CF90BF90AF900895A8
:1001B000FC01538D448D252F30E0842F90E0821B6D
:1001C000930B541710F0CF96089501970895FC01F2
:1001D000918D828D981761F0A28DAE0FBF2FB11D4A
:1001E0005D968C91928D9F5F9F73928F90E00895A2
:1001F0008FEF9FEF0895FC01918D828D981731F05C
:10020000828DE80FF11D858D90E008958FEF9FEFAF
:100210000895FC01918D228D892F90E0805C9F4F85
:10022000821B91098F73992708958FE691E00E94B0
:10023000090121E0892B09F420E0822F089580E054
:1002400090E0892B29F00E94150181110C94000087
:100250000895FC01A48DA80FB92FB11DA35ABF4F5B
:100260002C91848D90E001968F739927848FA689B5
:10027000B7892C93A089B1898C91837080648C9309
:10028000938D848D981306C00288F389E02D8081B8
:100290008F7D80830895EF92FF920F931F93CF93EA
:1002A000DF93EC0181E0888F9B8D8C8D98131AC0B1
:1002B000E889F989808185FF15C09FB7F894EE8998
:1002C000FF896083E889F9898081837080648083F5
:1002D0009FBF81E090E0DF91CF911F910F91FF9040
:1002E000EF900895F62E0B8D10E00F5F1F4F0F73E8
:1002F0001127E02E8C8D8E110CC00FB607FCFACFA3
:10030000E889F989808185FFF5CFCE010E94290116
:10031000F1CFEB8DEC0FFD2FF11DE35AFF4FF08273
:100320009FB7F8940B8FEA89FB8980818062CFCFD9
:10033000CF93DF93EC01888D8823B9F0AA89BB891C
:10034000E889F9898C9185FD03C0808186FD0DC007
:100350000FB607FCF7CF8C9185FFF2CF808185FF28
:10036000EDCFCE010E942901E9CFDF91CF91089511
:10037000833081F028F4813099F08230A9F008951B
:100380008730A9F08830C9F08430B1F480918000C2
:100390008F7D03C0809180008F77809380000895C7
:1003A00084B58F7784BD089584B58F7DFBCF809110
:1003B000B0008F778093B00008958091B0008F7D5A
:1003C000F9CFCF93DF93282F30E0F901EE58FF4F9C
:1003D0008491F901E255FF4FD491F901E656FF4FA0
:1003E000C491CC23A1F081110E94B801EC2FF0E060
:1003F000EE0FFF1FE859FF4FA591B491EC91ED234B
:1004000081E090E009F480E0DF91CF91089580E0F1
:1004100090E0FACF1F93CF93DF93282F30E0F901BC
:10042000EE58FF4F8491F901E255FF4FD491F90145
:10043000E656FF4FC491CC23A9F0162F81110E94DC
:10044000B801EC2FF0E0EE0FFF1FEA57FF4FA59128
:10045000B4918FB7F894EC91111108C0D095DE23B8
:10046000DC938FBFDF91CF911F910895DE2BF8CFE2
:100470001F93CF93DF93182FEB010E948C002097DE
:1004800039F460E0812FDF91CF911F910C940A0223
:10049000CF3FD10511F461E0F5CFE12FF0E0EE5848
:1004A000FF4FE491E33031F140F4E130B1F0E2305C
:1004B000E1F0C038D1057CF7E4CFE73029F1E8302E
:1004C00059F1E430B1F78091800080628093800020
:1004D000D0938B00C0938A0004C084B5806884BD2B
:1004E000C7BDDF91CF911F91089584B5806284BD0F
:1004F000C8BDF7CF80918000806880938000D09342
:100500008900C0938800EDCF8091B000806880930F
:10051000B000C093B300E5CF8091B00080628093BB
:10052000B000C093B400DDCF8E50806480937C0017
:1005300080917A00806480937A0080917A0086FDB1
:10054000FCCF809178009091790008953FB7F8949E
:100550008091670190916801A0916901B0916A0151
:1005600026B5A89B05C02F3F19F00196A11DB11D0E
:100570003FBFBA2FA92F982F8827BC01CD01620F4A
:10058000711D811D911D42E0660F771F881F991F05
:100590004A95D1F708958F929F92AF92BF92CF92D2
:1005A000DF92EF92FF924B015C010E94A6026B0169
:1005B0007C010E94A6026C197D098E099F09683E84
:1005C000734081059105A8F321E0821A9108A108E2
:1005D000B10888EEC80E83E0D81EE11CF11C81141E
:1005E0009104A104B10429F7FF90EF90DF90CF9020
:1005F000BF90AF909F908F900895FC0101900020D4
:10060000E9F73197AF01481B590BBC018FE691E028
:100610000C94AB000C94FD028F929F92AF92BF920C
:10062000CF92DF92EF92FF920F931F93CF93DF93BE
:10063000CDB7DEB7A1970FB6F894DEBF0FBECDBF22
:100640006C01990FEE08FF08F7FE41C06DE28FE6DE
:1006500091E00E944B018C0122273327A9012C191C
:100660003D094E095F0919A2CE0181967C019AE0ED
:10067000892E912CA12CB12CCA01B901A50194019C
:100680000E948106605DF70162937F0121153105AB
:100690004105510589F790E080E0309719F0CF01CE
:1006A0000E94FD02800F911FA1960FB6F894DEBF45
:1006B0000FBECDBFDF91CF911F910F91FF90EF90B3
:1006C000DF90CF90BF90AF909F908F900895A7013B
:1006D000960119A28E010F5D1F4F8AE0C82ED12C02
:1006E000E12CF12CCA01B901A70196010E948106F3
:1006F000605DF80162938F012115310541055105B7
:1007000089F790E080E0309779F2CF010E94FD02F6
:10071000CBCF1F920F920FB60F9211242F933F93BE
:100720004F935F936F937F938F939F93AF93BF93F9
:10073000EF93FF938FE691E00E942901FF91EF91E3
:10074000BF91AF919F918F917F916F915F914F91E9
:100750003F912F910F900FBE0F901F9018951F92F1
:100760000F920FB60F9211242F938F939F93EF93B5
:10077000FF93E0917F01F09180018081E0918501FC
:10078000F091860182FD1BC09081809188018F5F6E
:100790008F7320918901821741F0E0918801F0E088
:1007A000E159FE4F958F80938801FF91EF919F91C2
:1007B0008F912F910F900FBE0F901F9018958081F1
:1007C000F4CF1F920F920FB60F9211242F933F93E5
:1007D0008F939F93AF93BF93809163019091640136
:1007E000A0916501B09166013091620123E0230F71
:1007F0002D3758F50196A11DB11D209362018093FC
:10080000630190936401A0936501B09366018091A8
:10081000670190916801A0916901B0916A01019608
:10082000A11DB11D8093670190936801A093690198
:10083000B0936A01BF91AF919F918F913F912F919A
:100840000F900FBE0F901F90189526E8230F029669
:10085000A11DB11DD2CF789484B5826084BD84B5CA
:10086000816084BD85B5826085BD85B5816085BDAB
:1008700080916E00816080936E0010928100809163
:1008800081008260809381008091810081608093EB
:100890008100809180008160809380008091B10010
:1008A00084608093B1008091B00081608093B0003B
:1008B00080917A00846080937A0080917A008260CF
:1008C00080937A0080917A00816080937A00809191
:1008D0007A00806880937A001092C100E0917F01D5
:1008E000F091800182E08083E0917B01F0917C01B6
:1008F0001082E0917D01F0917E018FEC8083109257
:100900008701E0918301F091840186E08083E0918A
:100910008101F0918201808180618083E091810179
:10092000F0918201808188608083E0918101F09163
:100930008201808180688083E0918101F091820151
:1009400080818F7D808382E191E00E94FD0289E1B8
:1009500091E00E94FD0260ED77E080E090E00E946F
:10096000CB0284E00E948C0085E00E948C0086E02F
:100970000E948C0088E00E948C0089E00E948C001C
:100980008AE00E948C008EECC82EDD24D394E12CEA
:10099000F12C9DEC892E99249394A12CB12CC0E0CC
:1009A000D0E08EE00E94940290936E0180936D01DE
:1009B0008CE191E00E940A0380916D0190916E019B
:1009C0000E940C0380916D0190916E018F5F9140A8
:1009D00090936E0180936D0184E291E00E940A037E
:1009E00080916D0190916E010E940C0320916D0128
:1009F00030916E012E3C8FEF38070CF0D5C0032EDE
:100A0000000C440B550B21503E4F4F4F5F4FAEE74C
:100A1000BFEF0E947C06A50194010E944F06215061
:100A20003F4F4F4F5F4F30936E0120936D0160E059
:100A300084E00E940A0261E085E00E940A0260915F
:100A40006D0170916E0186E00E9438028CE491E0A5
:100A50000E940A0389E291E00E940A0384E00E9456
:100A6000E1010E940C0382E391E00E940A0385E009
:100A70000E94E1010E940C038CE391E00E940A03B2
:100A800080916D0190916E010E940C038FE00E9495
:100A9000940290936C0180936B0186E491E00E9434
:100AA0000A0381E591E00E940A0380916B01909115
:100AB0006C010E940C0380916B0190916C018F5F1F
:100AC000914090936C0180936B0184E291E00E94CD
:100AD0000A0380916B0190916C010E940C0320919C
:100AE0006B0130916C012E3C8FEF38070CF083C006
:100AF000032E000C440B550B21503E4F4F4F5F4FC0
:100B0000AEE7BFEF0E947C06A50194010E944F064C
:100B100021503F4F4F4F5F4F30936C0120936B013B
:100B200060E088E00E940A0261E089E00E940A0217
:100B300060916B0170916C018AE00E9438028CE434
:100B400091E00E940A0389E591E00E940A0388E08F
:100B50000E94E1010E940C0382E391E00E940A03DB
:100B600089E00E94E1010E940C038CE391E00E9465
:100B70000A0380916B0190916C010E940C0389E142
:100B800091E00E94FD0268EE73E080E090E00E9438
:100B9000CB02209709F405CF0E941501882309F4A0
:100BA00000CF0E940000FDCE23333105F4F0032E68
:100BB000000C440B550B2253310941095109A2E89D
:100BC000B0E00E946E06A70196010E944F062358CE
:100BD0003F4F4F4F5F4F30936E0120936D0161E0A7
:100BE00084E00E940A0260E027CF10926E0110920A
:100BF0006D0160E0F5CF23333105F4F0032E000CD6
:100C0000440B550B2253310941095109A2E8B0E0C8
:100C10000E946E06A70196010E944F0623583F4F7F
:100C20004F4F5F4F30936C0120936B0161E088E080
:100C30000E940A0260E079CF10926C0110926B0161
:100C400060E0F5CFEFE6F1E01382128288EE93E0E8
:100C5000A0E0B0E084839583A683B78384E091E02D
:100C60009183808385EC90E09587848784EC90E085
:100C70009787868780EC90E0918B808B81EC90E069
:100C8000938B828B82EC90E0958B848B86EC90E04A
:100C9000978B868B118E128E138E148E0895052ECF
:100CA00097FB1EF400940E94660657FD07D00E9431
:100CB000810607FC03D04EF40C94660650954095CF
:100CC000309521953F4F4F4F5F4F089590958095F8
:100CD000709561957F4F8F4F9F4F08950E94A30697
:100CE000A59F900DB49F900DA49F800D911D112480
:100CF0000895B7FF0C946E060E946E06821B930B3C
:100D00000895A1E21A2EAA1BBB1BFD010DC0AA1F4C
:100D1000BB1FEE1FFF1FA217B307E407F50720F064
:100D2000A21BB30BE40BF50B661F771F881F991FDF
:100D30001A9469F760957095809590959B01AC0128
:100D4000BD01CF010895A29FB001B39FC001A39F31
:100D5000700D811D1124911DB29F700D811D1124F4
:100D6000911D0895EE0FFF1F0590F491E02D099459
:100D7000F894FFCF000000004B01AB00D8009801B1
:100D80000901E700FB0048656C6C6F21000D0A004B
:100D9000506F7441202D2000203D3E200041204610
:100DA0007764202D2000202F20526576202D2000F2
:100DB000202F20536967202D2000202020207C7CBC
:100DC0002020202000506F7442202D200042204619
:060DD0007764202D2000D5
:107E0000112484B714BE81FFF0D085E080938100F7
:107E100082E08093C00088E18093C10086E0809377
:107E2000C20080E18093C4008EE0C9D0259A86E02C
:107E300020E33CEF91E0309385002093840096BBD3
:107E4000B09BFECF1D9AA8958150A9F7CC24DD24C4
:107E500088248394B5E0AB2EA1E19A2EF3E0BF2EE7
:107E6000A2D0813461F49FD0082FAFD0023811F036
:107E7000013811F484E001C083E08DD089C08234E0
:107E800011F484E103C0853419F485E0A6D080C0E4
:107E9000853579F488D0E82EFF2485D0082F10E0AE
:107EA000102F00270E291F29000F111F8ED06801E7
:107EB0006FC0863521F484E090D080E0DECF843638
:107EC00009F040C070D06FD0082F6DD080E0C81688
:107ED00080E7D80618F4F601B7BEE895C0E0D1E017
:107EE00062D089930C17E1F7F0E0CF16F0E7DF06D8
:107EF00018F0F601B7BEE89568D007B600FCFDCFD4
:107F0000A601A0E0B1E02C9130E011968C91119780
:107F100090E0982F8827822B932B1296FA010C0160
:107F200087BEE89511244E5F5F4FF1E0A038BF0790
:107F300051F7F601A7BEE89507B600FCFDCF97BE46
:107F4000E89526C08437B1F42ED02DD0F82E2BD052
:107F50003CD0F601EF2C8F010F5F1F4F84911BD097
:107F6000EA94F801C1F70894C11CD11CFA94CF0C13
:107F7000D11C0EC0853739F428D08EE10CD085E9AC
:107F80000AD08FE07ACF813511F488E018D01DD067
:107F900080E101D065CF982F8091C00085FFFCCF94
:107FA0009093C60008958091C00087FFFCCF809118
:107FB000C00084FD01C0A8958091C6000895E0E648
:107FC000F0E098E1908380830895EDDF803219F02E
:107FD00088E0F5DFFFCF84E1DECF1F93182FE3DFCA
:107FE0001150E9F7F2DF1F91089580E0E8DFEE27F6
:047FF000FF270994CA
:027FFE00040479
:00000001FF
