:020000040000FA
:100000000C9462000C948A000C948A000C948A0070
:100010000C948A000C948A000C948A000C948A0038
:100020000C948A000C948A000C948A000C948A0028
:100030000C948A000C948A000C948A000C948A0018
:100040000C9449060C948A000C9417060C94F10544
:100050000C948A000C948A000C948A000C948A00F8
:100060000C948A000C948A000000000023002600F3
:10007000290000000008000201000003040700003E
:1000800000000000000000000000250028002B00F8
:1000900000000000240027002A00040404040404D3
:1000A0000404020202020202030303030303010227
:1000B00004081020408001020408102001020408F6
:1000C0001020930611241FBECFEFD8E0DEBFCDBFB6
:1000D00011E0A0E0B1E0EAEEF5E102C005900D927A
:1000E000A238B107D9F722E0A2E8B1E001C01D9221
:1000F000A436B207E1F710E0C2E6D0E004C02197D1
:10010000FE010E94ED0AC136D107C9F70E942407FB
:100110000C94F30A0C94000090E0FC01E255FF4FB0
:10012000249186569F4FFC018491882399F090E09A
:10013000880F991FFC01E057FF4FA591B491FC0176
:10014000EA57FF4F859194918FB7F894EC91E22B89
:10015000EC938FBF0895AF92BF92CF92DF92EF9250
:10016000FF920F931F93CF93DF936C017B018B0161
:10017000040F151FEB015E01AE18BF08C017D107B1
:1001800059F06991D601ED91FC910190F081E02D3B
:10019000C6010995892B79F7C501DF91CF911F9190
:1001A0000F91FF90EF90DF90CF90BF90AF900895A8
:1001B000FC01538D448D252F30E0842F90E0821B6D
:1001C000930B541710F0CF96089501970895FC01F2
:1001D000918D828D981761F0A28DAE0FBF2FB11D4A
:1001E0005D968C91928D9F5F9F73928F90E00895A2
:1001F0008FEF9FEF0895FC01918D828D981731F05C
:10020000828DE80FF11D858D90E008958FEF9FEFAF
:100210000895FC01918D228D892F90E0805C9F4F85
:10022000821B91098F739927089587E991E00E94B5
:10023000090121E0892B09F420E0822F089580E054
:1002400090E0892B29F00E94150181110C94000087
:100250000895FC01A48DA80FB92FB11DA35ABF4F5B
:100260002C91848D90E001968F739927848FA689B5
:10027000B7892C93A089B1898C91837080648C9309
:10028000938D848D981306C00288F389E02D8081B8
:100290008F7D80830895EF92FF920F931F93CF93EA
:1002A000DF93EC0181E0888F9B8D8C8D98131AC0B1
:1002B000E889F989808185FF15C09FB7F894EE8998
:1002C000FF896083E889F9898081837080648083F5
:1002D0009FBF81E090E0DF91CF911F910F91FF9040
:1002E000EF900895F62E0B8D10E00F5F1F4F0F73E8
:1002F0001127E02E8C8D8E110CC00FB607FCFACFA3
:10030000E889F989808185FFF5CFCE010E94290116
:10031000F1CFEB8DEC0FFD2FF11DE35AFF4FF08273
:100320009FB7F8940B8FEA89FB8980818062CFCFD9
:10033000CF93DF93EC01888D8823B9F0AA89BB891C
:10034000E889F9898C9185FD03C0808186FD0DC007
:100350000FB607FCF7CF8C9185FFF2CF808185FF28
:10036000EDCFCE010E942901E9CFDF91CF91089511
:10037000833081F028F4813099F08230A9F008951B
:100380008730A9F08830C9F08430B1F480918000C2
:100390008F7D03C0809180008F77809380000895C7
:1003A00084B58F7784BD089584B58F7DFBCF809110
:1003B000B0008F778093B00008958091B0008F7D5A
:1003C000F9CFCF93DF93282F30E0F901EE58FF4F9C
:1003D0008491F901E255FF4FD491F901E656FF4FA0
:1003E000C491CC23A1F081110E94B801EC2FF0E060
:1003F000EE0FFF1FE859FF4FA591B491EC91ED234B
:1004000081E090E009F480E0DF91CF91089580E0F1
:1004100090E0FACF1F93CF93DF93282F30E0F901BC
:10042000EE58FF4F8491F901E255FF4FD491F90145
:10043000E656FF4FC491CC23A9F0162F81110E94DC
:10044000B801EC2FF0E0EE0FFF1FEA57FF4FA59128
:10045000B4918FB7F894EC91111108C0D095DE23B8
:10046000DC938FBFDF91CF911F910895DE2BF8CFE2
:100470008E3008F08E508770806480937C0080916D
:100480007A00806480937A0080917A0086FDFCCFA8
:10049000809178009091790008953FB7F894809109
:1004A000870190918801A0918901B0918A0126B5B8
:1004B000A89B05C02F3F19F00196A11DB11D3FBF9C
:1004C000BA2FA92F982F8827BC01CD01620F711D6B
:1004D000811D911D42E0660F771F881F991F4A9565
:1004E000D1F708958F929F92AF92BF92CF92DF92F1
:1004F000EF92FF924B015C010E944D026B017C0167
:100500000E944D026C197D098E099F09683E734057
:1005100081059105A8F321E0821A9108A108B1088C
:1005200088EEC80E83E0D81EE11CF11C81149104F2
:10053000A104B10429F7FF90EF90DF90CF90BF9016
:10054000AF909F908F900895FC0101900020E9F7F3
:100550003197AF01481B590BBC0187E991E00C941E
:10056000AB0082E191E00C94A4028F929F92AF9233
:10057000BF920F931F93CF93DF93CDB7DEB7A197B1
:100580000FB6F894DEBF0FBECDBF19A2423008F4FB
:100590004AE08E010F5D1F4F842E912CB12CA12CAF
:1005A000A50194010E94CB0AE62FB901CA01EA30E5
:1005B000F4F4E05DD801EE938D01232B242B252B41
:1005C00079F790E080E0109719F0CD010E94A40225
:1005D000A1960FB6F894DEBF0FBECDBFDF91CF91CD
:1005E0001F910F91BF90AF909F908F900895E95CFD
:1005F000E1CF0C94A402CF92DF92EF92FF92CF93BF
:10060000DF936C01990FEE08FF08F7FE19C06DE249
:1006100087E991E00E944B01EC0166277727CB0127
:100620006C197D098E099F094AE00E94B5028C0F62
:100630009D1FDF91CF91FF90EF90DF90CF900895B5
:100640004AE0C701B601DF91CF91FF90EF90DF90B4
:10065000CF900C94B5024F925F926F927F928F92DF
:100660009F92AF92BF92CF92DF92EF92FF920F9341
:100670001F93CF936B017C01742EAC019B010E94F0
:10068000C60A882399F085E191E0CF911F910F91DF
:10069000FF90EF90DF90CF90BF90AF909F908F90A2
:1006A0007F906F905F904F900C94A4024601570189
:1006B000E894B7F82FEF3FEF4FE75FE7C501B401CC
:1006C0000E94C60A81110DC02FEF3FEF4FE75FE791
:1006D000C501B4010E94F50818161CF489E191E0E7
:1006E000D4CF2FEF3FEF4FE75FE4C701B6010E9481
:1006F000540A18161CF48DE191E0C7CF2FEF3FEF9D
:100700004FE75FECC701B6010E94F50887FDF3CF04
:1007100020E030E0A901C701B6010E94F50810E011
:1007200000E087FF0AC06DE287E991E00E944B017B
:100730008C01F7FAF094F7F8F094C0E060E070E014
:1007400080E09FE37C1641F020E030E040E251E49D
:100750000E94FA08CF5FF6CFA70196010E94890890
:100760002B013C010E9473094B015C014AE00E948D
:10077000B5027C01E00EF11ECC23C1F1C501B4012C
:100780000E94A2099B01AC01C301B2010E9488082A
:100790004B015C016EE287E991E00E944B01E80E9B
:1007A000F91EC15018F120E030E040E251E4C501EB
:1007B000B4010E94590A2B013C010E9473094B01AC
:1007C000B12CA12C4AE0C501B4010E94B502E80E8B
:1007D000F91EC501B4010E94A2099B01AC01C3012D
:1007E000B2010E9488084B015C01DBCFC701CF91A9
:1007F0001F910F91FF90EF90DF90CF90BF90AF903F
:100800009F908F907F906F905F904F9008954F9240
:100810005F926F927F92AF92BF92CF92DF92EF92F0
:10082000FF920F931F93CF93DF938C016A017B019B
:10083000FC01D08120E030E0A901CB01B6010E948B
:10084000F508882309F45CC0C1E020E030E0A9018C
:10085000C701B6010E94540A18160CF0C0E06C2FB4
:100860008D2F0E940A0261E06C27F80182810E94AC
:100870000A02F801468057806084718420E030E0ED
:10088000A901C701B6010E94540A181624F0F7FA0C
:10089000F094F7F8F094A301920160E070E080E832
:1008A0009FE30E948808A70196010E94590AA301AC
:1008B00092010E9489086B017C0120E030E04FE743
:1008C00053E4C701B6010E94590A2B013C0120E004
:1008D00030E0A9010E94540A1816E4F4C301B201E1
:1008E0000E946C09EB01F801A480B5808A2D0E945A
:1008F0008C00209799F460E08A2D0E940A023BC088
:1009000060E08D2F0E940A0260E0F80182810E945F
:100910000A02D3CFC301B2019058E2CFCF3FD10535
:1009200011F461E0E9CFF501FF27EE58FF4FE491A4
:10093000E33009F460C048F4E130C9F0E23009F472
:1009400055C0C038D1056CF7D6CFE73009F45DC08B
:10095000E83009F462C0E430A1F780918000806241
:1009600080938000D0938B00C0938A0004C084B52C
:10097000806884BDC7BD80918B01882309F455C070
:1009800081E291E00E94F902F80180810E94E10178
:100990000E94FB028BE291E00E94F902F801828141
:1009A0000E94E1010E94FB0284E391E00E94F902AF
:1009B00042E0C701B6010E942B038DE391E00E9443
:1009C000F902C301B2010E946C09CB01DF91CF9102
:1009D0001F910F91FF90EF90DF90CF90BF90AF905D
:1009E0007F906F905F904F900C94FB0284B5806273
:1009F00084BDC8BDC0CF8091800080688093800096
:100A0000D0938900C0938800B6CF8091B0008068F1
:100A10008093B000C093B300AECF8091B0008062ED
:100A20008093B000C093B400A6CFDF91CF911F9107
:100A30000F91FF90EF90DF90CF90BF90AF907F909D
:100A40006F905F904F9008954F925F926F927F9258
:100A50008F929F92AF92BF92CF92DF92EF92FF92CE
:100A60000F931F93CF93DF93EC0188810E9438028C
:100A7000BC01990F880B990B0E94A40920E030E07B
:100A800040E05BE30E94590A20E030E040E85FE389
:100A90000E9488086B017C0120E030E0A9010E94DF
:100AA000540AA701960118160CF050588A809B80B2
:100AB000AC80BD80C501B4010E94540A18160CF424
:100AC00078C020E030E040E85FEBC701B6010E944B
:100AD000F50887FD72C020E030E040E85FE3C70121
:100AE000B6010E94540A18160CF46EC020E030E0E3
:100AF000A901C701B6010E94540A26013701181640
:100B000034F026013701F7FAF094F7F8F094C1E0D9
:100B1000D0E020E030E0A901B201C3010E94540AF4
:100B2000181614F0D0E0C0E001E010E020E030E062
:100B3000A901B201C3010E94F50887FD02C010E0BF
:100B400000E0BE01601B710B072E000C880B990B97
:100B50000E94A4092B013C01A5019401C701B60123
:100B60000E9488086B017C01A501940160E070E09F
:100B700080E89FE30E9488089B01AC01C701B60191
:100B80000E94FA089B01AC01C301B2010E94590AFC
:100B9000DF91CF911F910F91FF90EF90DF90CF9059
:100BA000BF90AF909F908F907F906F905F904F908D
:100BB0000895C12CD12C7601A4CFC12CD12C30E8C2
:100BC000E32E3FEBF32E9DCF412C512C80E8682E75
:100BD0009FE3792EC12CD12C20E8E22E2FE3F22EB8
:100BE00096CF1F920F920FB60F9211242F933F931F
:100BF0004F935F936F937F938F939F93AF93BF9325
:100C0000EF93FF9387E991E00E942901FF91EF9113
:100C1000BF91AF919F918F917F916F915F914F9114
:100C20003F912F910F900FBE0F901F9018951F921C
:100C30000F920FB60F9211242F938F939F93EF93E0
:100C4000FF93E091A701F091A8018081E091AD01AF
:100C5000F091AE0182FD1BC090818091B0018F5F49
:100C60008F732091B101821741F0E091B001F0E063
:100C7000E956FE4F958F8093B001FF91EF919F91C0
:100C80008F912F910F900FBE0F901F90189580811C
:100C9000F4CF1F920F920FB60F9211242F933F9310
:100CA0008F939F93AF93BF93809183019091840121
:100CB000A0918501B09186013091820123E0230F3C
:100CC0002D3758F50196A11DB11D20938201809307
:100CD000830190938401A0938501B0938601809154
:100CE000870190918801A0918901B0918A010196B4
:100CF000A11DB11D8093870190938801A093890164
:100D0000B0938A01BF91AF919F918F913F912F91A5
:100D10000F900FBE0F901F90189526E8230F029694
:100D2000A11DB11DD2CFCF92DF92EF92FF92CF9350
:100D3000DF93E7E9F1E01382128288EE93E0A0E00E
:100D4000B0E084839583A683B78384E091E09183A8
:100D5000808385EC90E09587848784EC90E097878A
:100D6000868780EC90E0918B808B81EC90E0938B78
:100D7000828B82EC90E0958B848B86EC90E0978B55
:100D8000868B118E128E138E148EEEE5F2E08EE0BD
:100D900090E0918380838DEC9CECACECBDE382838E
:100DA0009383A483B583E8E5F2E08FE090E091833C
:100DB00080838DEC9CECACE4BDE382839383A483BD
:100DC000B583CEE3D2E084E090E09983888385E028
:100DD00090E09B838A8386E090E09D838C8386E607
:100DE000C82EDC2C86EEE82E8EE3F82ECE82DF8233
:100DF000E886F98684E00E948C008A810E948C003B
:100E00008C810E948C00C4E3D2E088E090E099835A
:100E1000888389E090E09B838A838AE090E09D83C9
:100E20008C83CE82DF82E886F98688E00E948C007F
:100E30008A810E948C008C81DF91CF91FF90EF908E
:100E4000DF90CF900C948C00789484B5826084BD40
:100E500084B5816084BD85B5826085BD85B58160BE
:100E600085BD80916E00816080936E00109281003C
:100E700080918100826080938100809181008160F7
:100E800080938100809180008160809380008091B8
:100E9000B10084608093B1008091B0008160809344
:100EA000B00080917A00846080937A0080917A000B
:100EB000826080937A0080917A00816080937A00CA
:100EC00080917A00806880937A001092C100E0914E
:100ED000A701F091A80182E08083E091A701F09141
:100EE000A8011082E091A301F091A4011082E09189
:100EF000A501F091A60180E180831092AF01E091FD
:100F0000AB01F091AC0186E08083E091A901F09102
:100F1000AA01808180618083E091A901F091AA01FA
:100F2000808188608083E091A901F091AA0180818D
:100F300080688083E091A901F091AA0180818F7D72
:100F4000808386E491E00E94A4020E94B10281E0C5
:100F500080938B0180938C0160ED77E080E090E0DE
:100F60000E947202C0E5D2E000E010E08EE592E05F
:100F70000E942405609393017093940180939501DE
:100F80009093960188E592E00E9424056B017C0114
:100F9000C0928F01D0929001E0929101F092920163
:100FA0008090930190909401A0909501B09096014B
:100FB00020E030E0A9010E94540A18160CF08BC002
:100FC0008092500290925102A0925202B09253022B
:100FD000A701960160E070E080E89FE30E94880826
:100FE000A50194010E94590A60935402709355021E
:100FF00080935602909357028DE491E00E94F9028B
:1010000042E0C501B4010E942B0386E591E00E94F5
:10101000F90242E0C701B6010E942B030E94B1020F
:1010200080E691E00E94F9026091500270915102B5
:10103000809152029091530242E00E942B038CE671
:1010400091E00E94F90260915402709155028091E2
:1010500056029091570242E00E942B03D0938E01DA
:10106000C0938D0180918C0181110E94B102E091A9
:101070008D01F0918E0140815181628173818EE3F7
:1010800092E00E94070480918B01882321F089E778
:1010900091E00E94F902E0918D01F0918E0144816E
:1010A00055816681778184E392E00E9407040E9463
:1010B000B10264EF71E080E090E00E9472020115DD
:1010C000110509F453CF0E941501882309F44ECF6E
:1010D0000E9400004BCF8092540290925502A09241
:1010E0005602B092570220E030E040E85FE3C701CB
:1010F000B6010E948908A50194010E94590A6093D3
:10110000500270935102809352029093530274CF15
:101110005058BB27AA270E94A0080C941A0A0E94C4
:101120000C0A38F00E94130A20F039F49F3F19F49A
:1011300026F40C94090A0EF4E095E7FB0C94030ADC
:10114000E92F0E942B0A58F3BA1762077307840726
:10115000950720F079F4A6F50C944D0A0EF4E0956D
:101160000B2EBA2FA02D0B01B90190010C01CA0161
:10117000A0011124FF27591B99F0593F50F4503E0C
:1011800068F11A16F040A22F232F342F4427585FFE
:10119000F3CF469537952795A795F0405395C9F716
:1011A0007EF41F16BA0B620B730B840BBAF09150CE
:1011B000A1F0FF0FBB1F661F771F881FC2F70EC06D
:1011C000BA0F621F731F841F48F487957795679540
:1011D000B795F7959E3F08F0B0CF9395880F08F02C
:1011E0009927EE0F9795879508950E94DF0908F4D7
:1011F00081E008950E940E090C941A0A0E94130AB5
:1012000058F00E940C0A40F029F45F3F29F00C943A
:10121000030A51110C944E0A0C94090A0E942B0ADD
:1012200068F39923B1F3552391F3951B550BBB2715
:10123000AA2762177307840738F09F5F5F4F220F5A
:10124000331F441FAA1FA9F335D00E2E3AF0E0E851
:1012500032D091505040E695001CCAF72BD0FE2F9B
:1012600029D0660F771F881FBB1F2617370748072F
:10127000AB07B0E809F0BB0B802DBF01FF279358E7
:101280005F4F3AF09E3F510578F00C94030A0C949E
:101290004E0A5F3FE4F3983ED4F3869577956795C1
:1012A000B795F7959F5FC9F7880F911D969587951C
:1012B00097F90895E1E0660F771F881FBB1F62173B
:1012C00073078407BA0720F0621B730B840BBA0BF9
:1012D000EE1F88F7E09508950E9473096894B11194
:1012E0000C944E0A08950E94330A88F09F5798F094
:1012F000B92F9927B751B0F0E1F0660F771F881F1B
:10130000991F1AF0BA95C9F714C0B13091F00E9434
:101310004D0AB1E008950C944D0A672F782F882765
:10132000B85F39F0B93FCCF3869577956795B3955B
:10133000D9F73EF490958095709561957F4F8F4FCA
:101340009F4F0895E89409C097FB3EF490958095CF
:10135000709561957F4F8F4F9F4F9923A9F0F92F7B
:1013600096E9BB279395F695879577956795B795F9
:10137000F111F8CFFAF4BB0F11F460FF1BC06F5FDF
:101380007F4F8F4F9F4F16C0882311F096E911C0F1
:10139000772321F09EE8872F762F05C0662371F012
:1013A00096E8862F70E060E02AF09A95660F771F26
:1013B000881FDAF7880F9695879597F90895990F02
:1013C0000008550FAA0BE0E8FEEF16161706E8070F
:1013D000F907C0F012161306E407F50798F0621B30
:1013E000730B840B950B39F40A2661F0232B242B05
:1013F000252B21F408950A2609F4A140A6958FEF24
:10140000811D811D089597F99F6780E870E060E075
:1014100008959FEF80EC089500240A94161617068D
:1014200018060906089500240A94121613061406D5
:1014300005060895092E0394000C11F4882352F038
:10144000BB0F40F4BF2B11F460FF04C06F5F7F4FF0
:101450008F4F9F4F089557FD9058440F551F59F0D7
:101460005F3F71F04795880F97FB991F61F09F3F91
:1014700079F087950895121613061406551FF2CFBA
:101480004695F1DF08C0161617061806991FF1CF0A
:1014900086957105610508940895E894BB27662731
:1014A0007727CB0197F908950E94DF0908F48FEFA1
:1014B00008950E946C0A0C941A0A0E940C0A38F0D3
:1014C0000E94130A20F0952311F00C94030A0C9447
:1014D000090A11240C944E0A0E942B0A70F3959F5E
:1014E000C1F3950F50E0551F629FF001729FBB271B
:1014F000F00DB11D639FAA27F00DB11DAA1F649FB7
:101500006627B00DA11D661F829F2227B00DA11D69
:10151000621F739FB00DA11D621F839FA00D611DEF
:10152000221F749F3327A00D611D231F849F600D10
:10153000211D822F762F6A2F11249F5750409AF039
:10154000F1F088234AF0EE0FFF1FBB1F661F771FC5
:10155000881F91505040A9F79E3F510580F00C9490
:10156000030A0C944E0A5F3FE4F3983ED4F3869549
:1015700077956795B795F795E7959F5FC1F7FE2B30
:10158000880F911D9695879597F908950E94DF0918
:10159000880B990B0895A1E21A2EAA1BBB1BFD0113
:1015A0000DC0AA1FBB1FEE1FFF1FA217B307E40742
:1015B000F50720F0A21BB30BE40BF50B661F771F9A
:1015C000881F991F1A9469F760957095809590957A
:1015D0009B01AC01BD01CF010895EE0FFF1F0590E7
:1015E000F491E02D0994F894FFCF000000004B0126
:1015F000AB00D80098010901E700FB000D0A006E5E
:10160000616E00696E66006F7666002020202046BD
:1016100077643A2000202F205265763A2000202F50
:10162000205369673A2000202F204F75743A20001C
:1016300048656C6C6F2100506F74205370643A00E1
:1016400009506F7420526F743A004D74722041201B
:10165000636D643A2000094D7472204220636D640A
:0C1660003A20002020097C7C092020009A
:107E0000112484B714BE81FFF0D085E080938100F7
:107E100082E08093C00088E18093C10086E0809377
:107E2000C20080E18093C4008EE0C9D0259A86E02C
:107E300020E33CEF91E0309385002093840096BBD3
:107E4000B09BFECF1D9AA8958150A9F7CC24DD24C4
:107E500088248394B5E0AB2EA1E19A2EF3E0BF2EE7
:107E6000A2D0813461F49FD0082FAFD0023811F036
:107E7000013811F484E001C083E08DD089C08234E0
:107E800011F484E103C0853419F485E0A6D080C0E4
:107E9000853579F488D0E82EFF2485D0082F10E0AE
:107EA000102F00270E291F29000F111F8ED06801E7
:107EB0006FC0863521F484E090D080E0DECF843638
:107EC00009F040C070D06FD0082F6DD080E0C81688
:107ED00080E7D80618F4F601B7BEE895C0E0D1E017
:107EE00062D089930C17E1F7F0E0CF16F0E7DF06D8
:107EF00018F0F601B7BEE89568D007B600FCFDCFD4
:107F0000A601A0E0B1E02C9130E011968C91119780
:107F100090E0982F8827822B932B1296FA010C0160
:107F200087BEE89511244E5F5F4FF1E0A038BF0790
:107F300051F7F601A7BEE89507B600FCFDCF97BE46
:107F4000E89526C08437B1F42ED02DD0F82E2BD052
:107F50003CD0F601EF2C8F010F5F1F4F84911BD097
:107F6000EA94F801C1F70894C11CD11CFA94CF0C13
:107F7000D11C0EC0853739F428D08EE10CD085E9AC
:107F80000AD08FE07ACF813511F488E018D01DD067
:107F900080E101D065CF982F8091C00085FFFCCF94
:107FA0009093C60008958091C00087FFFCCF809118
:107FB000C00084FD01C0A8958091C6000895E0E648
:107FC000F0E098E1908380830895EDDF803219F02E
:107FD00088E0F5DFFFCF84E1DECF1F93182FE3DFCA
:107FE0001150E9F7F2DF1F91089580E0E8DFEE27F6
:047FF000FF270994CA
:027FFE00040479
:00000001FF
