:100000000C9462000C948A000C948A000C948A0070
:100010000C948A000C948A000C948A000C948A0038
:100020000C948A000C948A000C948A000C948A0028
:100030000C948A000C948A000C948A000C948A0018
:100040000C947C060C948A000C944A060C942406AA
:100050000C948A000C948A000C948A000C948A00F8
:100060000C948A000C948A000000000023002600F3
:10007000290000000008000201000003040700003E
:1000800000000000000000000000250028002B00F8
:1000900000000000240027002A00040404040404D3
:1000A0000404020202020202030303030303010227
:1000B00004081020408001020408102001020408F6
:1000C0001020C60611241FBECFEFD8E0DEBFCDBF83
:1000D00011E0A0E0B1E0E0EAF5E102C005900D9288
:1000E000AE36B107D9F722E0AEE6B1E001C01D920D
:1000F000AE33B207E1F710E0C2E6D0E004C02197CA
:10010000FE010E94C80AC136D107C9F70E945707ED
:100110000C94CE0A0C94000090E0FC01E255FF4FD5
:10012000249186569F4FFC018491882399F090E09A
:10013000880F991FFC01E057FF4FA591B491FC0176
:10014000EA57FF4F859194918FB7F894EC91E22B89
:10015000EC938FBF0895AF92BF92CF92DF92EF9250
:10016000FF920F931F93CF93DF936C017B018B0161
:10017000040F151FEB015E01AE18BF08C017D107B1
:1001800059F06991D601ED91FC910190F081E02D3B
:10019000C6010995892B79F7C501DF91CF911F9190
:1001A0000F91FF90EF90DF90CF90BF90AF900895A8
:1001B000FC01538D448D252F30E0842F90E0821B6D
:1001C000930B541710F0CF96089501970895FC01F2
:1001D000918D828D981761F0A28DAE0FBF2FB11D4A
:1001E0005D968C91928D9F5F9F73928F90E00895A2
:1001F0008FEF9FEF0895FC01918D828D981731F05C
:10020000828DE80FF11D858D90E008958FEF9FEFAF
:100210000895FC01918D228D892F90E0805C9F4F85
:10022000821B91098F739927089581E891E00E94BC
:10023000090121E0892B09F420E0822F089580E054
:1002400090E0892B29F00E94150181110C94000087
:100250000895FC01A48DA80FB92FB11DA35ABF4F5B
:100260002C91848D90E001968F739927848FA689B5
:10027000B7892C93A089B1898C91837080648C9309
:10028000938D848D981306C00288F389E02D8081B8
:100290008F7D80830895EF92FF920F931F93CF93EA
:1002A000DF93EC0181E0888F9B8D8C8D98131AC0B1
:1002B000E889F989808185FF15C09FB7F894EE8998
:1002C000FF896083E889F9898081837080648083F5
:1002D0009FBF81E090E0DF91CF911F910F91FF9040
:1002E000EF900895F62E0B8D10E00F5F1F4F0F73E8
:1002F0001127E02E8C8D8E110CC00FB607FCFACFA3
:10030000E889F989808185FFF5CFCE010E94290116
:10031000F1CFEB8DEC0FFD2FF11DE35AFF4FF08273
:100320009FB7F8940B8FEA89FB8980818062CFCFD9
:10033000CF93DF93EC01888D8823B9F0AA89BB891C
:10034000E889F9898C9185FD03C0808186FD0DC007
:100350000FB607FCF7CF8C9185FFF2CF808185FF28
:10036000EDCFCE010E942901E9CFDF91CF91089511
:10037000833081F028F4813099F08230A9F008951B
:100380008730A9F08830C9F08430B1F480918000C2
:100390008F7D03C0809180008F77809380000895C7
:1003A00084B58F7784BD089584B58F7DFBCF809110
:1003B000B0008F778093B00008958091B0008F7D5A
:1003C000F9CFCF93DF93282F30E0F901EE58FF4F9C
:1003D0008491F901E255FF4FD491F901E656FF4FA0
:1003E000C491CC23A1F081110E94B801EC2FF0E060
:1003F000EE0FFF1FE859FF4FA591B491EC91ED234B
:1004000081E090E009F480E0DF91CF91089580E0F1
:1004100090E0FACF1F93CF93DF93282F30E0F901BC
:10042000EE58FF4F8491F901E255FF4FD491F90145
:10043000E656FF4FC491CC23A9F0162F81110E94DC
:10044000B801EC2FF0E0EE0FFF1FEA57FF4FA59128
:10045000B4918FB7F894EC91111108C0D095DE23B8
:10046000DC938FBFDF91CF911F910895DE2BF8CFE2
:100470008E3008F08E508770806480937C0080916D
:100480007A00806480937A0080917A0086FDFCCFA8
:10049000809178009091790008953FB7F894809109
:1004A000730190917401A0917501B091760126B508
:1004B000A89B05C02F3F19F00196A11DB11D3FBF9C
:1004C000BA2FA92F982F8827BC01CD01620F711D6B
:1004D000811D911D42E0660F771F881F991F4A9565
:1004E000D1F708958F929F92AF92BF92CF92DF92F1
:1004F000EF92FF924B015C010E944D026B017C0167
:100500000E944D026C197D098E099F09683E734057
:1005100081059105A8F321E0821A9108A108B1088C
:1005200088EEC80E83E0D81EE11CF11C81149104F2
:10053000A104B10429F7FF90EF90DF90CF90BF9016
:10054000AF909F908F900895FC0101900020E9F7F3
:100550003197AF01481B590BBC0181E891E00C9425
:10056000AB008F929F92AF92BF920F931F93CF9346
:10057000DF93CDB7DEB7A1970FB6F894DEBF0FBEFD
:10058000CDBF19A2423008F44AE08E010F5D1F4F23
:10059000842E912CB12CA12CA50194010E94A60AB5
:1005A000E62FB901CA01EA30F4F4E05DD801EE9318
:1005B0008D01232B242B252B79F790E080E01097D9
:1005C00019F0CD010E94A402A1960FB6F894DEBFE7
:1005D0000FBECDBFDF91CF911F910F91BF90AF9014
:1005E0009F908F900895E95CE1CF0C94A402CF9284
:1005F000DF92EF92FF92CF93DF936C01990FEE0899
:10060000FF08F7FE19C06DE281E891E00E944B01FE
:10061000EC0166277727CB016C197D098E099F09AC
:100620004AE00E94B1028C0F9D1FDF91CF91FF9095
:10063000EF90DF90CF9008954AE0C701B601DF91B7
:10064000CF91FF90EF90DF90CF900C94B1024F923A
:100650005F926F927F928F929F92AF92BF92CF9252
:10066000DF92EF92FF920F931F93CF936B017C0168
:10067000742EAC019B010E94A10A882399F082E1AB
:1006800091E0CF911F910F91FF90EF90DF90CF906D
:10069000BF90AF909F908F907F906F905F904F90A2
:1006A0000C94A40246015701E894B7F82FEF3FEFEE
:1006B0004FE75FE7C501B4010E94A10A81110DC097
:1006C0002FEF3FEF4FE75FE7C501B4010E94D0086D
:1006D00018161CF486E191E0D4CF2FEF3FEF4FE7DF
:1006E0005FE4C701B6010E942F0A18161CF48AE1C4
:1006F00091E0C7CF2FEF3FEF4FE75FECC701B601A7
:100700000E94D00887FDF3CF20E030E0A901C701A7
:10071000B6010E94D00810E000E087FF0AC06DE239
:1007200081E891E00E944B018C01F7FAF094F7F810
:10073000F094C0E060E070E080E09FE37C1641F060
:1007400020E030E040E251E40E94D508CF5FF6CFD0
:10075000A70196010E9464082B013C010E944E09EA
:100760004B015C014AE00E94B1027C01E00EF11EE7
:10077000CC23C1F1C501B4010E947D099B01AC01EC
:10078000C301B2010E9463084B015C016EE281E883
:1007900091E00E944B01E80EF91EC15018F120E0D3
:1007A00030E040E251E4C501B4010E94340A2B015B
:1007B0003C010E944E094B01B12CA12C4AE0C5011D
:1007C000B4010E94B102E80EF91EC501B4010E94F5
:1007D0007D099B01AC01C301B2010E9463084B017A
:1007E0005C01DBCFC701CF911F910F91FF90EF907C
:1007F000DF90CF90BF90AF909F908F907F906F9041
:100800005F904F9008954F925F926F927F92AF9258
:10081000BF92CF92DF92EF92FF920F931F93CF93ED
:10082000DF938C016A017B01FC01D08120E030E084
:10083000A901CB01B6010E94D008882309F45CC04D
:10084000C1E020E030E0A901C701B6010E942F0AF3
:1008500018160CF0C0E06C2F8D2F0E940A0261E088
:100860006C27F80182810E940A02F80146805780B5
:100870006084718420E030E0A901C701B6010E94C4
:100880002F0A181624F0F7FAF094F7F8F094A30161
:10089000920160E070E080E89FE30E946308A70196
:1008A00096010E94340AA30192010E9464086B0120
:1008B0007C0120E030E04FE753E4C701B6010E941D
:1008C000340A2B013C0120E030E0A9010E942F0AEC
:1008D0001816E4F4C301B2010E944709EB01F801C4
:1008E000A480B5808A2D0E948C00209799F460E046
:1008F0008A2D0E940A023BC060E08D2F0E940A02EE
:1009000060E0F80182810E940A02D3CFC301B201E4
:100910009058E2CFCF3FD10511F461E0E9CFF50166
:10092000FF27EE58FF4FE491E33009F460C048F42C
:10093000E130C9F0E23009F455C0C038D1056CF798
:10094000D6CFE73009F45DC0E83009F462C0E43086
:10095000A1F780918000806280938000D0938B000B
:10096000C0938A0004C084B5806884BDC7BD8091EF
:100970007701882309F455C08EE191E00E94F502C9
:10098000F80180810E94E1010E94F70288E291E073
:100990000E94F502F80182810E94E1010E94F702A3
:1009A00081E391E00E94F50242E0C701B6010E9496
:1009B00027038AE391E00E94F502C301B2010E947D
:1009C0004709CB01DF91CF911F910F91FF90EF90DD
:1009D000DF90CF90BF90AF907F906F905F904F90DF
:1009E0000C94F70284B5806284BDC8BDC0CF8091ED
:1009F0008000806880938000D0938900C093880035
:100A0000B6CF8091B00080688093B000C093B300EF
:100A1000AECF8091B00080628093B000C093B400EC
:100A2000A6CFDF91CF911F910F91FF90EF90DF90B4
:100A3000CF90BF90AF907F906F905F904F90089550
:100A40002F923F924F925F926F927F928F929F92DE
:100A5000AF92BF92CF92DF92EF92FF920F931F93CC
:100A6000CF93DF938C01FC0180810E943802BC018E
:100A7000990F880B990B0E947F0920E030E040E03D
:100A80005BE30E94340A20E030E040E85FE30E942C
:100A900063086B017C0120E030E0A9010E942F0A6D
:100AA000A701960118160CF05058F80142805380A7
:100AB00064807580C301B2010E942F0A18160CF4DD
:100AC000ABC020E030E040E85FEBC701B6010E9418
:100AD000D00887FDA5C020E030E040E85FE3C70113
:100AE000B6010E942F0A18160CF4A1C020E030E0D5
:100AF000A901C701B6010E942F0A16014701181665
:100B000034F016014701F7FAF094F7F8F094C1E0D9
:100B1000D0E020E030E0A901B101C4010E942F0A19
:100B2000181614F0D0E0C0E0AA24A394B12C20E061
:100B300030E0A901B101C4010E94D00887FD02C0C4
:100B4000B12CA12CBE016A197B09072E000C880B61
:100B5000990B0E947F094B015C01A3019201C7011F
:100B6000B6010E9463086B017C01A301920160E061
:100B700070E080E89FE30E9463089B01AC01C7011D
:100B8000B6010E94D5089B01AC01C501B4010E94C9
:100B9000340A6B017C0180917801882341F183E460
:100BA00091E00E94F502F801808191810E94F70294
:100BB00088E491E00E94F502F80180810E943802E9
:100BC0000E94F7028CE491E00E94F50242E0C70126
:100BD000B6010E94270381E591E00E94F502F80129
:100BE000628173818481958142E00E942703C7015D
:100BF000B601DF91CF911F910F91FF90EF90DF90A1
:100C0000CF90BF90AF909F908F907F906F905F90AC
:100C10004F903F902F900895C12CD12C760171CF29
:100C2000C12CD12C40E8E42E4FEBF42E6ACF212CBE
:100C3000312C90E8892E2FE3922EC12CD12C30E854
:100C4000E32E3FE3F32E63CF1F920F920FB60F9266
:100C500011242F933F934F935F936F937F938F93C1
:100C60009F93AF93BF93EF93FF9381E891E00E942E
:100C70002901FF91EF91BF91AF919F918F917F914A
:100C80006F915F914F913F912F910F900FBE0F90F9
:100C90001F9018951F920F920FB60F9211242F9349
:100CA0008F939F93EF93FF93E0919101F0919201C5
:100CB0008081E0919701F091980182FD1BC09081A5
:100CC00080919A018F5F8F7320919B01821741F071
:100CD000E0919A01F0E0EF57FE4F958F80939A01D3
:100CE000FF91EF919F918F912F910F900FBE0F90D9
:100CF0001F9018958081F4CF1F920F920FB60F921C
:100D000011242F933F938F939F93AF93BF93809121
:100D10006F0190917001A0917101B09172013091B9
:100D20006E0123E0230F2D3758F50196A11DB11D4B
:100D300020936E0180936F0190937001A0937101D5
:100D4000B09372018091730190917401A09175012B
:100D5000B09176010196A11DB11D8093730190930E
:100D60007401A0937501B0937601BF91AF919F91EB
:100D70008F913F912F910F900FBE0F901F9018955C
:100D800026E8230F0296A11DB11DD2CFCF92DF928C
:100D9000EF92FF92CF93DF93E1E8F1E013821282AA
:100DA00088EE93E0A0E0B0E084839583A683B783C8
:100DB00084E091E09183808385EC90E0958784873F
:100DC00084EC90E09787868780EC90E0918B808B15
:100DD00081EC90E0938B828B82EC90E0958B848BFE
:100DE00086EC90E0978B868B118E128E138E148E6C
:100DF000E8E3F2E08EE090E0918380838DEC9CEC60
:100E0000ACECBDE382839383A483B583E2E3F2E099
:100E10008FE090E0918380838DEC9CECACE4BDE3AB
:100E200082839383A483B583C8E2D2E084E090E018
:100E30009983888385E090E09B838A8386E090E0B5
:100E40009D838C8386E6C82EDC2C86EEE82E8EE30E
:100E5000F82ECE82DF82E886F98684E00E948C003C
:100E60008A810E948C008C810E948C00CEE1D2E0AD
:100E700088E090E09983888389E090E09B838A836F
:100E80008AE090E09D838C83CE82DF82E886F986BB
:100E900088E00E948C008A810E948C008C81DF9106
:100EA000CF91FF90EF90DF90CF900C948C007894CE
:100EB00084B5826084BD84B5816084BD85B582605F
:100EC00085BD85B5816085BD80916E008160809310
:100ED0006E00109281008091810082608093810079
:100EE0008091810081608093810080918000816089
:100EF000809380008091B10084608093B1008091E4
:100F0000B00081608093B00080917A00846080930B
:100F10007A0080917A00826080937A0080917A00D2
:100F2000816080937A0080917A00806880937A0053
:100F30001092C100E0919101F091920182E08083D2
:100F4000E0919101F09192011082E0918D01F09178
:100F50008E011082E0918F01F091900180E18083F9
:100F600010929901E0919501F091960186E08083BD
:100F7000E0919301F0919401808180618083E09100
:100F80009301F0919401808188608083E0919301C6
:100F9000F0919401808180688083E0919301F091C9
:100FA000940180818F7D808387E591E00E94A40277
:100FB0008EE591E00E94A40281E080937801809305
:100FC000770160ED77E080E090E00E947202C0E07F
:100FD000D0E088E392E00E94200560937D01709349
:100FE0007E0180937F019093800181E691E00E94D1
:100FF000F50282E392E00E942005609379017093EC
:101000007A0180937B0190937C018EE591E00E94B0
:10101000A40220E030E040E85FE360917901709144
:101020007A0180917B0190917C010E94640820915B
:101030007D0130917E0140917F01509180010E949D
:10104000340A20E030E0A9010E946408AB01BC0131
:1010500088E292E00E94030484E691E00E94F50297
:101060002091790130917A0140917B0150917C016E
:1010700060E070E080E89FE30E94630820917D01BA
:1010800030917E0140917F01509180010E94340A8D
:10109000AB01BC018EE192E00E9403048EE591E079
:1010A0000E94A40264EF71E080E090E00E9472026E
:1010B000209709F48ECF0E941501882309F489CF67
:1010C0000E94000086CF5058BB27AA270E947B08A9
:1010D0000C94F5090E94E70938F00E94EE0920F00F
:1010E00039F49F3F19F426F40C94E4090EF4E095CA
:1010F000E7FB0C94DE09E92F0E94060A58F3BA17A1
:10110000620773078407950720F079F4A6F50C941D
:10111000280A0EF4E0950B2EBA2FA02D0B01B90171
:1011200090010C01CA01A0011124FF27591B99F05D
:10113000593F50F4503E68F11A16F040A22F232F69
:10114000342F4427585FF3CF469537952795A795B9
:10115000F0405395C9F77EF41F16BA0B620B730B60
:10116000840BBAF09150A1F0FF0FBB1F661F771FD1
:10117000881FC2F70EC0BA0F621F731F841F48F486
:10118000879577956795B795F7959E3F08F0B0CF0F
:101190009395880F08F09927EE0F979587950895F6
:1011A0000E94BA0908F481E008950E94E9080C94AD
:1011B000F5090E94EE0958F00E94E70940F029F471
:1011C0005F3F29F00C94DE0951110C94290A0C940C
:1011D000E4090E94060A68F39923B1F3552391F3B9
:1011E000951B550BBB27AA2762177307840738F096
:1011F0009F5F5F4F220F331F441FAA1FA9F335D0F3
:101200000E2E3AF0E0E832D091505040E695001CA6
:10121000CAF72BD0FE2F29D0660F771F881FBB1F60
:10122000261737074807AB07B0E809F0BB0B802D3E
:10123000BF01FF2793585F4F3AF09E3F510578F06A
:101240000C94DE090C94290A5F3FE4F3983ED4F332
:10125000869577956795B795F7959F5FC9F7880F3E
:10126000911D9695879597F90895E1E0660F771F90
:10127000881FBB1F621773078407BA0720F0621B21
:10128000730B840BBA0BEE1F88F7E09508950E944C
:101290004E096894B1110C94290A08950E940E0A0F
:1012A00088F09F5798F0B92F9927B751B0F0E1F027
:1012B000660F771F881F991F1AF0BA95C9F714C0D7
:1012C000B13091F00E94280AB1E008950C94280AE8
:1012D000672F782F8827B85F39F0B93FCCF3869510
:1012E00077956795B395D9F73EF49095809570956D
:1012F00061957F4F8F4F9F4F0895E89409C097FBEA
:101300003EF490958095709561957F4F8F4F9F4FDC
:101310009923A9F0F92F96E9BB279395F695879520
:1013200077956795B795F111F8CFFAF4BB0F11F4E3
:1013300060FF1BC06F5F7F4F8F4F9F4F16C088238A
:1013400011F096E911C0772321F09EE8872F762FC0
:1013500005C0662371F096E8862F70E060E02AF001
:101360009A95660F771F881FDAF7880F96958795ED
:1013700097F90895990F0008550FAA0BE0E8FEEFC2
:1013800016161706E807F907C0F012161306E40749
:10139000F50798F0621B730B840B950B39F40A2642
:1013A00061F0232B242B252B21F408950A2609F420
:1013B000A140A6958FEF811D811D089597F99F6724
:1013C00080E870E060E008959FEF80EC08950024CD
:1013D0000A941616170618060906089500240A949A
:1013E00012161306140605060895092E0394000C20
:1013F00011F4882352F0BB0F40F4BF2B11F460FFAF
:1014000004C06F5F7F4F8F4F9F4F089557FD9058D7
:10141000440F551F59F05F3F71F04795880F97FBB8
:10142000991F61F09F3F79F0879508951216130672
:101430001406551FF2CF4695F1DF08C016161706A1
:101440001806991FF1CF86957105610508940895D6
:10145000E894BB2766277727CB0197F908950E9468
:10146000BA0908F48FEF08950E94470A0C94F50911
:101470000E94E70938F00E94EE0920F0952311F050
:101480000C94DE090C94E40911240C94290A0E949E
:10149000060A70F3959FC1F3950F50E0551F629FA8
:1014A000F001729FBB27F00DB11D639FAA27F00DBD
:1014B000B11DAA1F649F6627B00DA11D661F829FE4
:1014C0002227B00DA11D621F739FB00DA11D621FC9
:1014D000839FA00D611D221F749F3327A00D611DE6
:1014E000231F849F600D211D822F762F6A2F1124C8
:1014F0009F5750409AF0F1F088234AF0EE0FFF1FFB
:10150000BB1F661F771F881F91505040A9F79E3F51
:10151000510580F00C94DE090C94290A5F3FE4F336
:10152000983ED4F3869577956795B795F795E795A7
:101530009F5FC1F7FE2B880F911D9695879597F9B0
:1015400008950E94BA09880B990B0895A1E21A2EFA
:10155000AA1BBB1BFD010DC0AA1FBB1FEE1FFF1F57
:10156000A217B307E407F50720F0A21BB30BE40BA7
:10157000F50B661F771F881F991F1A9469F76095EE
:101580007095809590959B01AC01BD01CF010895A8
:10159000EE0FFF1F0590F491E02D0994F894FFCF12
:1015A000000000004B01AB00D80098010901E700E2
:1015B000FB006E616E00696E66006F76660020202B
:1015C00020204677643A2000202F205265763A206A
:1015D00000202F205369673A2000202F204F757478
:1015E0003A200050696E3A00203D2000203D3E2008
:1015F000000944423A200048656C6C6F21000D0AD6
:0E160000002009002020097C7C092020000029
:00000001FF
